{
  "contractName": "Metakages",
  "abi": [
    {
      "inputs": [],
      "stateMutability": "nonpayable",
      "type": "constructor"
    },
    {
      "anonymous": false,
      "inputs": [
        {
          "indexed": true,
          "internalType": "address",
          "name": "owner",
          "type": "address"
        },
        {
          "indexed": true,
          "internalType": "address",
          "name": "approved",
          "type": "address"
        },
        {
          "indexed": true,
          "internalType": "uint256",
          "name": "tokenId",
          "type": "uint256"
        }
      ],
      "name": "Approval",
      "type": "event"
    },
    {
      "anonymous": false,
      "inputs": [
        {
          "indexed": true,
          "internalType": "address",
          "name": "owner",
          "type": "address"
        },
        {
          "indexed": true,
          "internalType": "address",
          "name": "operator",
          "type": "address"
        },
        {
          "indexed": false,
          "internalType": "bool",
          "name": "approved",
          "type": "bool"
        }
      ],
      "name": "ApprovalForAll",
      "type": "event"
    },
    {
      "anonymous": false,
      "inputs": [
        {
          "indexed": true,
          "internalType": "address",
          "name": "previousOwner",
          "type": "address"
        },
        {
          "indexed": true,
          "internalType": "address",
          "name": "newOwner",
          "type": "address"
        }
      ],
      "name": "OwnershipTransferred",
      "type": "event"
    },
    {
      "anonymous": false,
      "inputs": [
        {
          "indexed": true,
          "internalType": "address",
          "name": "from",
          "type": "address"
        },
        {
          "indexed": true,
          "internalType": "address",
          "name": "to",
          "type": "address"
        },
        {
          "indexed": true,
          "internalType": "uint256",
          "name": "tokenId",
          "type": "uint256"
        }
      ],
      "name": "Transfer",
      "type": "event"
    },
    {
      "inputs": [],
      "name": "ADDRESS_1",
      "outputs": [
        {
          "internalType": "address",
          "name": "",
          "type": "address"
        }
      ],
      "stateMutability": "view",
      "type": "function",
      "constant": true
    },
    {
      "inputs": [],
      "name": "ADDRESS_2",
      "outputs": [
        {
          "internalType": "address",
          "name": "",
          "type": "address"
        }
      ],
      "stateMutability": "view",
      "type": "function",
      "constant": true
    },
    {
      "inputs": [],
      "name": "MAX_SUPPLY",
      "outputs": [
        {
          "internalType": "uint256",
          "name": "",
          "type": "uint256"
        }
      ],
      "stateMutability": "view",
      "type": "function",
      "constant": true
    },
    {
      "inputs": [],
      "name": "MINT_LIMIT",
      "outputs": [
        {
          "internalType": "uint256",
          "name": "",
          "type": "uint256"
        }
      ],
      "stateMutability": "view",
      "type": "function",
      "constant": true
    },
    {
      "inputs": [],
      "name": "PUBLIC_PRICE",
      "outputs": [
        {
          "internalType": "uint256",
          "name": "",
          "type": "uint256"
        }
      ],
      "stateMutability": "view",
      "type": "function",
      "constant": true
    },
    {
      "inputs": [],
      "name": "RESERVE_SUPPLY",
      "outputs": [
        {
          "internalType": "uint256",
          "name": "",
          "type": "uint256"
        }
      ],
      "stateMutability": "view",
      "type": "function",
      "constant": true
    },
    {
      "inputs": [],
      "name": "WL_PRICE",
      "outputs": [
        {
          "internalType": "uint256",
          "name": "",
          "type": "uint256"
        }
      ],
      "stateMutability": "view",
      "type": "function",
      "constant": true
    },
    {
      "inputs": [
        {
          "internalType": "address",
          "name": "to",
          "type": "address"
        },
        {
          "internalType": "uint256",
          "name": "tokenId",
          "type": "uint256"
        }
      ],
      "name": "approve",
      "outputs": [],
      "stateMutability": "nonpayable",
      "type": "function"
    },
    {
      "inputs": [
        {
          "internalType": "address",
          "name": "owner",
          "type": "address"
        }
      ],
      "name": "balanceOf",
      "outputs": [
        {
          "internalType": "uint256",
          "name": "",
          "type": "uint256"
        }
      ],
      "stateMutability": "view",
      "type": "function",
      "constant": true
    },
    {
      "inputs": [
        {
          "internalType": "address",
          "name": "",
          "type": "address"
        }
      ],
      "name": "freeMints",
      "outputs": [
        {
          "internalType": "bool",
          "name": "",
          "type": "bool"
        }
      ],
      "stateMutability": "view",
      "type": "function",
      "constant": true
    },
    {
      "inputs": [
        {
          "internalType": "uint256",
          "name": "tokenId",
          "type": "uint256"
        }
      ],
      "name": "getApproved",
      "outputs": [
        {
          "internalType": "address",
          "name": "",
          "type": "address"
        }
      ],
      "stateMutability": "view",
      "type": "function",
      "constant": true
    },
    {
      "inputs": [
        {
          "internalType": "address",
          "name": "owner",
          "type": "address"
        },
        {
          "internalType": "address",
          "name": "operator",
          "type": "address"
        }
      ],
      "name": "isApprovedForAll",
      "outputs": [
        {
          "internalType": "bool",
          "name": "",
          "type": "bool"
        }
      ],
      "stateMutability": "view",
      "type": "function",
      "constant": true
    },
    {
      "inputs": [],
      "name": "isPresaleActive",
      "outputs": [
        {
          "internalType": "bool",
          "name": "",
          "type": "bool"
        }
      ],
      "stateMutability": "view",
      "type": "function",
      "constant": true
    },
    {
      "inputs": [],
      "name": "isPublicSaleActive",
      "outputs": [
        {
          "internalType": "bool",
          "name": "",
          "type": "bool"
        }
      ],
      "stateMutability": "view",
      "type": "function",
      "constant": true
    },
    {
      "inputs": [],
      "name": "name",
      "outputs": [
        {
          "internalType": "string",
          "name": "",
          "type": "string"
        }
      ],
      "stateMutability": "view",
      "type": "function",
      "constant": true
    },
    {
      "inputs": [],
      "name": "nextOwnerToExplicitlySet",
      "outputs": [
        {
          "internalType": "uint256",
          "name": "",
          "type": "uint256"
        }
      ],
      "stateMutability": "view",
      "type": "function",
      "constant": true
    },
    {
      "inputs": [],
      "name": "owner",
      "outputs": [
        {
          "internalType": "address",
          "name": "",
          "type": "address"
        }
      ],
      "stateMutability": "view",
      "type": "function",
      "constant": true
    },
    {
      "inputs": [
        {
          "internalType": "uint256",
          "name": "tokenId",
          "type": "uint256"
        }
      ],
      "name": "ownerOf",
      "outputs": [
        {
          "internalType": "address",
          "name": "",
          "type": "address"
        }
      ],
      "stateMutability": "view",
      "type": "function",
      "constant": true
    },
    {
      "inputs": [],
      "name": "renounceOwnership",
      "outputs": [],
      "stateMutability": "nonpayable",
      "type": "function"
    },
    {
      "inputs": [
        {
          "internalType": "address",
          "name": "from",
          "type": "address"
        },
        {
          "internalType": "address",
          "name": "to",
          "type": "address"
        },
        {
          "internalType": "uint256",
          "name": "tokenId",
          "type": "uint256"
        }
      ],
      "name": "safeTransferFrom",
      "outputs": [],
      "stateMutability": "nonpayable",
      "type": "function"
    },
    {
      "inputs": [
        {
          "internalType": "address",
          "name": "from",
          "type": "address"
        },
        {
          "internalType": "address",
          "name": "to",
          "type": "address"
        },
        {
          "internalType": "uint256",
          "name": "tokenId",
          "type": "uint256"
        },
        {
          "internalType": "bytes",
          "name": "_data",
          "type": "bytes"
        }
      ],
      "name": "safeTransferFrom",
      "outputs": [],
      "stateMutability": "nonpayable",
      "type": "function"
    },
    {
      "inputs": [
        {
          "internalType": "address",
          "name": "operator",
          "type": "address"
        },
        {
          "internalType": "bool",
          "name": "approved",
          "type": "bool"
        }
      ],
      "name": "setApprovalForAll",
      "outputs": [],
      "stateMutability": "nonpayable",
      "type": "function"
    },
    {
      "inputs": [
        {
          "internalType": "bytes4",
          "name": "interfaceId",
          "type": "bytes4"
        }
      ],
      "name": "supportsInterface",
      "outputs": [
        {
          "internalType": "bool",
          "name": "",
          "type": "bool"
        }
      ],
      "stateMutability": "view",
      "type": "function",
      "constant": true
    },
    {
      "inputs": [],
      "name": "symbol",
      "outputs": [
        {
          "internalType": "string",
          "name": "",
          "type": "string"
        }
      ],
      "stateMutability": "view",
      "type": "function",
      "constant": true
    },
    {
      "inputs": [
        {
          "internalType": "uint256",
          "name": "index",
          "type": "uint256"
        }
      ],
      "name": "tokenByIndex",
      "outputs": [
        {
          "internalType": "uint256",
          "name": "",
          "type": "uint256"
        }
      ],
      "stateMutability": "view",
      "type": "function",
      "constant": true
    },
    {
      "inputs": [
        {
          "internalType": "address",
          "name": "owner",
          "type": "address"
        },
        {
          "internalType": "uint256",
          "name": "index",
          "type": "uint256"
        }
      ],
      "name": "tokenOfOwnerByIndex",
      "outputs": [
        {
          "internalType": "uint256",
          "name": "",
          "type": "uint256"
        }
      ],
      "stateMutability": "view",
      "type": "function",
      "constant": true
    },
    {
      "inputs": [],
      "name": "totalSupply",
      "outputs": [
        {
          "internalType": "uint256",
          "name": "",
          "type": "uint256"
        }
      ],
      "stateMutability": "view",
      "type": "function",
      "constant": true
    },
    {
      "inputs": [
        {
          "internalType": "address",
          "name": "from",
          "type": "address"
        },
        {
          "internalType": "address",
          "name": "to",
          "type": "address"
        },
        {
          "internalType": "uint256",
          "name": "tokenId",
          "type": "uint256"
        }
      ],
      "name": "transferFrom",
      "outputs": [],
      "stateMutability": "nonpayable",
      "type": "function"
    },
    {
      "inputs": [
        {
          "internalType": "address",
          "name": "newOwner",
          "type": "address"
        }
      ],
      "name": "transferOwnership",
      "outputs": [],
      "stateMutability": "nonpayable",
      "type": "function"
    },
    {
      "inputs": [
        {
          "internalType": "bytes32",
          "name": "",
          "type": "bytes32"
        }
      ],
      "name": "usedDigests",
      "outputs": [
        {
          "internalType": "bool",
          "name": "",
          "type": "bool"
        }
      ],
      "stateMutability": "view",
      "type": "function",
      "constant": true
    },
    {
      "inputs": [
        {
          "internalType": "uint256",
          "name": "numberOfTokens",
          "type": "uint256"
        },
        {
          "internalType": "uint64",
          "name": "expireTime",
          "type": "uint64"
        },
        {
          "internalType": "bytes",
          "name": "sig",
          "type": "bytes"
        }
      ],
      "name": "mint",
      "outputs": [],
      "stateMutability": "payable",
      "type": "function",
      "payable": true
    },
    {
      "inputs": [
        {
          "internalType": "bytes32[]",
          "name": "proof",
          "type": "bytes32[]"
        },
        {
          "internalType": "uint256",
          "name": "numberOfTokens",
          "type": "uint256"
        },
        {
          "internalType": "uint256",
          "name": "maxPresaleMint",
          "type": "uint256"
        }
      ],
      "name": "presaleMint",
      "outputs": [],
      "stateMutability": "payable",
      "type": "function",
      "payable": true
    },
    {
      "inputs": [
        {
          "internalType": "bytes32[]",
          "name": "proof",
          "type": "bytes32[]"
        }
      ],
      "name": "freeMint",
      "outputs": [],
      "stateMutability": "nonpayable",
      "type": "function"
    },
    {
      "inputs": [
        {
          "internalType": "uint256",
          "name": "numberOfTokens",
          "type": "uint256"
        }
      ],
      "name": "devMint",
      "outputs": [],
      "stateMutability": "nonpayable",
      "type": "function"
    },
    {
      "inputs": [
        {
          "internalType": "string",
          "name": "URI",
          "type": "string"
        }
      ],
      "name": "setBaseURI",
      "outputs": [],
      "stateMutability": "nonpayable",
      "type": "function"
    },
    {
      "inputs": [
        {
          "internalType": "bool",
          "name": "revealed",
          "type": "bool"
        },
        {
          "internalType": "string",
          "name": "_baseURI",
          "type": "string"
        }
      ],
      "name": "reveal",
      "outputs": [],
      "stateMutability": "nonpayable",
      "type": "function"
    },
    {
      "inputs": [],
      "name": "setPublicSaleStatus",
      "outputs": [],
      "stateMutability": "nonpayable",
      "type": "function"
    },
    {
      "inputs": [],
      "name": "setPreSaleStatus",
      "outputs": [],
      "stateMutability": "nonpayable",
      "type": "function"
    },
    {
      "inputs": [],
      "name": "withdraw",
      "outputs": [],
      "stateMutability": "nonpayable",
      "type": "function"
    },
    {
      "inputs": [
        {
          "internalType": "uint256",
          "name": "tokenId",
          "type": "uint256"
        }
      ],
      "name": "tokenURI",
      "outputs": [
        {
          "internalType": "string",
          "name": "",
          "type": "string"
        }
      ],
      "stateMutability": "view",
      "type": "function",
      "constant": true
    },
    {
      "inputs": [
        {
          "internalType": "address",
          "name": "owner",
          "type": "address"
        }
      ],
      "name": "tokensOfOwner",
      "outputs": [
        {
          "internalType": "uint256[]",
          "name": "",
          "type": "uint256[]"
        }
      ],
      "stateMutability": "view",
      "type": "function",
      "constant": true
    },
    {
      "inputs": [
        {
          "internalType": "address",
          "name": "owner",
          "type": "address"
        }
      ],
      "name": "numberMinted",
      "outputs": [
        {
          "internalType": "uint256",
          "name": "",
          "type": "uint256"
        }
      ],
      "stateMutability": "view",
      "type": "function",
      "constant": true
    },
    {
      "inputs": [
        {
          "internalType": "bytes32",
          "name": "_presaleRoot_1",
          "type": "bytes32"
        },
        {
          "internalType": "bytes32",
          "name": "_presaleRoot_2",
          "type": "bytes32"
        }
      ],
      "name": "setPreSaleRoot",
      "outputs": [],
      "stateMutability": "nonpayable",
      "type": "function"
    },
    {
      "inputs": [
        {
          "internalType": "bytes32",
          "name": "_freemintRoot",
          "type": "bytes32"
        }
      ],
      "name": "setFreeMintRoot",
      "outputs": [],
      "stateMutability": "nonpayable",
      "type": "function"
    },
    {
      "inputs": [
        {
          "internalType": "address",
          "name": "_signer",
          "type": "address"
        }
      ],
      "name": "setSigner",
      "outputs": [],
      "stateMutability": "nonpayable",
      "type": "function"
    }
  ],
  "bytecode": "0x6000808055600781905567013fbe85edc9000060095567016345785d8a0000600a55600b805462ffffff1916905560e0604081905260c08290526200004891600c91906200020a565b503480156200005657600080fd5b50604051806040016040528060098152602001684d6574616b6167657360b81b815250604051806040016040528060098152602001684d4554414b4147455360b81b815250601e610bb8600081116200010d5760405162461bcd60e51b815260206004820152602e60248201527f455243373231413a20636f6c6c656374696f6e206d757374206861766520612060448201526d6e6f6e7a65726f20737570706c7960901b60648201526084015b60405180910390fd5b600082116200016f5760405162461bcd60e51b815260206004820152602760248201527f455243373231413a206d61782062617463682073697a65206d757374206265206044820152666e6f6e7a65726f60c81b606482015260840162000104565b8351620001849060019060208701906200020a565b5082516200019a9060029060208601906200020a565b5060a09190915260805250620001b2905033620001b8565b620002ec565b600880546001600160a01b038381166001600160a01b0319831681179093556040519116919082907f8be0079c531659141344cd1fd0a4f28419497f9722a3daafe3b4186f6b6457e090600090a35050565b8280546200021890620002b0565b90600052602060002090601f0160209004810192826200023c576000855562000287565b82601f106200025757805160ff191683800117855562000287565b8280016001018555821562000287579182015b82811115620002875782518255916020019190600101906200026a565b506200029592915062000299565b5090565b5b808211156200029557600081556001016200029a565b600181811c90821680620002c557607f821691505b602082108103620002e657634e487b7160e01b600052602260045260246000fd5b50919050565b60805160a0516136ff6200031d600039600081816121640152818161218e01526126640152600050506136ff6000f3fe6080604052600436106102725760003560e01c80636d41d4fb1161014f578063a22cb465116100c1578063d39c4de71161007a578063d39c4de714610722578063d7224ba014610752578063dc33e68114610768578063de97536b14610788578063e985e9c5146107b0578063f2fde38b146107f957600080fd5b8063a22cb46514610672578063aa66797b14610692578063b08da342146106a7578063b3754e86146106cf578063b88d4fde146106e2578063c87b56dd1461070257600080fd5b80637dfed9fe116101135780637dfed9fe146105bd5780638462151c146105d257806388d15d50146105ff5780638da5cb5b1461061f57806395d89b411461063d578063a101ff6d1461065257600080fd5b80636d41d4fb1461051857806370a082311461054857806370c4257514610568578063715018a61461058857806377aeead91461059d57600080fd5b8063375a069a116101e85780634f6ccce7116101ac5780634f6ccce71461046357806355f804b31461048357806360d938dc146104a3578063611f3f10146104c25780636352211e146104d85780636c19e783146104f857600080fd5b8063375a069a146103e65780633c18c3da146104065780633ccfd60b146104195780633e07ac021461042e57806342842e0e1461044357600080fd5b806318160ddd1161023a57806318160ddd1461034b5780631e84c4131461036057806323b872dd1461037a5780632f745c591461039a57806331c3c7a0146103ba57806332cb6b0c146103d057600080fd5b806301ffc9a71461027757806302775240146102ac57806306fdde03146102cf578063081812fc146102f1578063095ea7b314610329575b600080fd5b34801561028357600080fd5b50610297610292366004612cf9565b610819565b60405190151581526020015b60405180910390f35b3480156102b857600080fd5b506102c1600481565b6040519081526020016102a3565b3480156102db57600080fd5b506102e4610886565b6040516102a39190612d75565b3480156102fd57600080fd5b5061031161030c366004612d88565b610918565b6040516001600160a01b0390911681526020016102a3565b34801561033557600080fd5b50610349610344366004612db8565b6109a8565b005b34801561035757600080fd5b506000546102c1565b34801561036c57600080fd5b50600b546102979060ff1681565b34801561038657600080fd5b50610349610395366004612de2565b610abf565b3480156103a657600080fd5b506102c16103b5366004612db8565b610aca565b3480156103c657600080fd5b506102c160095481565b3480156103dc57600080fd5b506102c1610bb881565b3480156103f257600080fd5b50610349610401366004612d88565b610c35565b610349610414366004612ee3565b610d03565b34801561042557600080fd5b506103496110ac565b34801561043a57600080fd5b506103496111bb565b34801561044f57600080fd5b5061034961045e366004612de2565b611202565b34801561046f57600080fd5b506102c161047e366004612d88565b61121d565b34801561048f57600080fd5b5061034961049e366004612f71565b61127f565b3480156104af57600080fd5b50600b5461029790610100900460ff1681565b3480156104ce57600080fd5b506102c1600a5481565b3480156104e457600080fd5b506103116104f3366004612d88565b6112b5565b34801561050457600080fd5b50610349610513366004612fb2565b6112c7565b34801561052457600080fd5b50610297610533366004612fb2565b60106020526000908152604090205460ff1681565b34801561055457600080fd5b506102c1610563366004612fb2565b611313565b34801561057457600080fd5b50610349610583366004612d88565b6113a4565b34801561059457600080fd5b506103496113d3565b3480156105a957600080fd5b506103496105b8366004612fcd565b611409565b3480156105c957600080fd5b5061034961143e565b3480156105de57600080fd5b506105f26105ed366004612fb2565b61147c565b6040516102a39190612fef565b34801561060b57600080fd5b5061034961061a366004613033565b61151d565b34801561062b57600080fd5b506008546001600160a01b0316610311565b34801561064957600080fd5b506102e461173a565b34801561065e57600080fd5b5061034961066d366004613077565b611749565b34801561067e57600080fd5b5061034961068d3660046130c9565b61179a565b34801561069e57600080fd5b506102c1601e81565b3480156106b357600080fd5b5061031173792c97d764148134aea12b4f0df362076f770c3181565b6103496106dd36600461316b565b61185e565b3480156106ee57600080fd5b506103496106fd3660046131cc565b611b9d565b34801561070e57600080fd5b506102e461071d366004612d88565b611bd0565b34801561072e57600080fd5b5061029761073d366004612d88565b60136020526000908152604090205460ff1681565b34801561075e57600080fd5b506102c160075481565b34801561077457600080fd5b506102c1610783366004612fb2565b611c2d565b34801561079457600080fd5b5061031173188a3c584f0de9ee0eabe04316a94a41f0867c0c81565b3480156107bc57600080fd5b506102976107cb366004613233565b6001600160a01b03918216600090815260066020908152604080832093909416825291909152205460ff1690565b34801561080557600080fd5b50610349610814366004612fb2565b611c38565b60006001600160e01b031982166380ac58cd60e01b148061084a57506001600160e01b03198216635b5e139f60e01b145b8061086557506001600160e01b0319821663780e9d6360e01b145b8061088057506301ffc9a760e01b6001600160e01b03198316145b92915050565b6060600180546108959061325d565b80601f01602080910402602001604051908101604052809291908181526020018280546108c19061325d565b801561090e5780601f106108e35761010080835404028352916020019161090e565b820191906000526020600020905b8154815290600101906020018083116108f157829003601f168201915b5050505050905090565b6000610925826000541190565b61098c5760405162461bcd60e51b815260206004820152602d60248201527f455243373231413a20617070726f76656420717565727920666f72206e6f6e6560448201526c3c34b9ba32b73a103a37b5b2b760991b60648201526084015b60405180910390fd5b506000908152600560205260409020546001600160a01b031690565b60006109b3826112b5565b9050806001600160a01b0316836001600160a01b031603610a215760405162461bcd60e51b815260206004820152602260248201527f455243373231413a20617070726f76616c20746f2063757272656e74206f776e60448201526132b960f11b6064820152608401610983565b336001600160a01b0382161480610a3d5750610a3d81336107cb565b610aaf5760405162461bcd60e51b815260206004820152603960248201527f455243373231413a20617070726f76652063616c6c6572206973206e6f74206f60448201527f776e6572206e6f7220617070726f76656420666f7220616c6c000000000000006064820152608401610983565b610aba838383611cd0565b505050565b610aba838383611d2c565b6000610ad583611313565b8210610b2e5760405162461bcd60e51b815260206004820152602260248201527f455243373231413a206f776e657220696e646578206f7574206f6620626f756e604482015261647360f01b6064820152608401610983565b600080549080805b83811015610bd5576000818152600360209081526040918290208251808401909352546001600160a01b038116808452600160a01b9091046001600160401b03169183019190915215610b8857805192505b876001600160a01b0316836001600160a01b031603610bc257868403610bb45750935061088092505050565b83610bbe816132ad565b9450505b5080610bcd816132ad565b915050610b36565b5060405162461bcd60e51b815260206004820152602e60248201527f455243373231413a20756e61626c6520746f2067657420746f6b656e206f662060448201526d0deeedccae440c4f240d2dcc8caf60931b6064820152608401610983565b6008546001600160a01b03163314610c5f5760405162461bcd60e51b8152600401610983906132c6565b610bb8610c6b60005490565b610c7590836132fb565b1115610c935760405162461bcd60e51b815260040161098390613313565b601e610c9e33611c2d565b610ca890836132fb565b1115610cf65760405162461bcd60e51b815260206004820152601960248201527f4e4f545f454e4f5547485f524553455256455f535550504c59000000000000006044820152606401610983565b610d0033826120b2565b50565b336000908152601160205260409020546002904211610d345760405162461bcd60e51b81526004016109839061333e565b323314610d535760405162461bcd60e51b815260040161098390613375565b8060ff16600103610d8057600b5460ff16610d805760405162461bcd60e51b8152600401610983906133ac565b8060ff16600203610db257600b54610100900460ff16610db25760405162461bcd60e51b8152600401610983906133e3565b8060ff16600303610de457600b54610100900460ff16610de45760405162461bcd60e51b81526004016109839061341a565b6040516001600160601b03193360601b16602082015260009060340160405160208183030381529060405280519060200120905082600103610e6e57610e2d85600d54836120cc565b610e695760405162461bcd60e51b815260206004820152600d60248201526c141493d3d197d2539590531251609a1b6044820152606401610983565b610ecb565b82600203610e8357610e2d85600e54836120cc565b60405162461bcd60e51b815260206004820152601860248201527f494e56414c49445f4d41585f50524553414c455f4d494e5400000000000000006044820152606401610983565b600484610ed733611c2d565b610ee191906132fb565b1115610f235760405162461bcd60e51b8152602060048201526011602482015270115610d1515117d352539517d312535255607a1b6044820152606401610983565b610bb8610f2f60005490565b610f3990866132fb565b1115610f575760405162461bcd60e51b815260040161098390613313565b3360009081526010602052604090205460ff1615610fdd57610f7a8360016132fb565b84610f8433611c2d565b610f8e91906132fb565b1115610fd85760405162461bcd60e51b8152602060048201526019602482015278115610d1515117d4149154d0531157d352539517d312535255603a1b6044820152606401610983565b61103c565b8284610fe833611c2d565b610ff291906132fb565b111561103c5760405162461bcd60e51b8152602060048201526019602482015278115610d1515117d4149154d0531157d352539517d312535255603a1b6044820152606401610983565b8360095461104a9190613451565b34146110895760405162461bcd60e51b815260206004820152600e60248201526d1253959053125117d05353d5539560921b6044820152606401610983565b3360008181526011602052604090204290556110a590856120b2565b5050505050565b6008546001600160a01b031633146110d65760405162461bcd60e51b8152600401610983906132c6565b478061111d5760405162461bcd60e51b81526020600482015260166024820152754e6f2062616c616e636520746f20776974686472617760501b6044820152606401610983565b73188a3c584f0de9ee0eabe04316a94a41f0867c0c6108fc612710611144846105dc613451565b61114e9190613486565b6040518115909202916000818181858888f19350505050158015611176573d6000803e3d6000fd5b5060405173792c97d764148134aea12b4f0df362076f770c31904780156108fc02916000818181858888f193505050501580156111b7573d6000803e3d6000fd5b5050565b6008546001600160a01b031633146111e55760405162461bcd60e51b8152600401610983906132c6565b600b805461ff001981166101009182900460ff1615909102179055565b610aba83838360405180602001604052806000815250611b9d565b60008054821061127b5760405162461bcd60e51b815260206004820152602360248201527f455243373231413a20676c6f62616c20696e646578206f7574206f6620626f756044820152626e647360e81b6064820152608401610983565b5090565b6008546001600160a01b031633146112a95760405162461bcd60e51b8152600401610983906132c6565b610aba600c8383612c53565b60006112c0826120e2565b5192915050565b6008546001600160a01b031633146112f15760405162461bcd60e51b8152600401610983906132c6565b601280546001600160a01b0319166001600160a01b0392909216919091179055565b60006001600160a01b03821661137f5760405162461bcd60e51b815260206004820152602b60248201527f455243373231413a2062616c616e636520717565727920666f7220746865207a60448201526a65726f206164647265737360a81b6064820152608401610983565b506001600160a01b03166000908152600460205260409020546001600160801b031690565b6008546001600160a01b031633146113ce5760405162461bcd60e51b8152600401610983906132c6565b600f55565b6008546001600160a01b031633146113fd5760405162461bcd60e51b8152600401610983906132c6565b611407600061228b565b565b6008546001600160a01b031633146114335760405162461bcd60e51b8152600401610983906132c6565b600d91909155600e55565b6008546001600160a01b031633146114685760405162461bcd60e51b8152600401610983906132c6565b600b805460ff19811660ff90911615179055565b6060600061148983611313565b90506000816001600160401b038111156114a5576114a5612e1e565b6040519080825280602002602001820160405280156114ce578160200160208202803683370190505b50905060005b82811015611515576114e68582610aca565b8282815181106114f8576114f861349a565b60209081029190910101528061150d816132ad565b9150506114d4565b509392505050565b33600090815260116020526040902054600390421161154e5760405162461bcd60e51b81526004016109839061333e565b32331461156d5760405162461bcd60e51b815260040161098390613375565b8060ff1660010361159a57600b5460ff1661159a5760405162461bcd60e51b8152600401610983906133ac565b8060ff166002036115cc57600b54610100900460ff166115cc5760405162461bcd60e51b8152600401610983906133e3565b8060ff166003036115fe57600b54610100900460ff166115fe5760405162461bcd60e51b81526004016109839061341a565b6040516001600160601b03193360601b16602082015260009060340160405160208183030381529060405280519060200120905061163f83600f54836120cc565b61167b5760405162461bcd60e51b815260206004820152600d60248201526c141493d3d197d2539590531251609a1b6044820152606401610983565b610bb861168760005490565b6116929060016132fb565b11156116b05760405162461bcd60e51b815260040161098390613313565b3360009081526010602052604090205460ff16156117065760405162461bcd60e51b81526020600482015260136024820152721053149150511657d194915157d35253951151606a1b6044820152606401610983565b33600081815260116020908152604080832042905560109091529020805460ff19166001908117909155610aba91906120b2565b6060600280546108959061325d565b6008546001600160a01b031633146117735760405162461bcd60e51b8152600401610983906132c6565b600b805462ff000019166201000085151502179055611794600c8383612c53565b50505050565b336001600160a01b038316036117f25760405162461bcd60e51b815260206004820152601a60248201527f455243373231413a20617070726f766520746f2063616c6c65720000000000006044820152606401610983565b3360008181526006602090815260408083206001600160a01b03871680855290835292819020805460ff191686151590811790915590519081529192917f17307eab39ab6107e8899845ad3d59bd9653f200f220920489ca2b5937696c31910160405180910390a35050565b33600090815260116020526040902054600190421161188f5760405162461bcd60e51b81526004016109839061333e565b3233146118ae5760405162461bcd60e51b815260040161098390613375565b8060ff166001036118db57600b5460ff166118db5760405162461bcd60e51b8152600401610983906133ac565b8060ff1660020361190d57600b54610100900460ff1661190d5760405162461bcd60e51b8152600401610983906133e3565b8060ff1660030361193f57600b54610100900460ff1661193f5760405162461bcd60e51b81526004016109839061341a565b6040516001600160601b03193360601b1660208201526001600160c01b031960c085901b166034820152603c8101859052600090605c0160405160208183030381529060405280519060200120905061199883826122dd565b6119e45760405162461bcd60e51b815260206004820152601960248201527f434f4e54524143545f4d494e545f4e4f545f414c4c4f574544000000000000006044820152606401610983565b836001600160401b0316421115611a315760405162461bcd60e51b8152602060048201526011602482015270455850495245445f5349474e415455524560781b6044820152606401610983565b60008181526013602052604090205460ff1615611a905760405162461bcd60e51b815260206004820152601d60248201527f5349474e41545552455f4c4f4f50494e475f4e4f545f414c4c4f5745440000006044820152606401610983565b610bb8611a9c60005490565b611aa690876132fb565b1115611ac45760405162461bcd60e51b815260040161098390613313565b600485611ad033611c2d565b611ada91906132fb565b1115611b1c5760405162461bcd60e51b8152602060048201526011602482015270115610d1515117d352539517d312535255607a1b6044820152606401610983565b84600a54611b2a9190613451565b3414611b695760405162461bcd60e51b815260206004820152600e60248201526d1253959053125117d05353d5539560921b6044820152606401610983565b33600081815260116020908152604080832042905584835260139091529020805460ff191660011790556110a590866120b2565b611ba8848484611d2c565b611bb484848484612307565b6117945760405162461bcd60e51b8152600401610983906134b0565b600b5460609062010000900460ff1615611c1657600c611bef83612409565b604051602001611c0092919061359c565b6040516020818303038152906040529050919050565b600c604051602001611c0091906135c1565b919050565b600061088082612509565b6008546001600160a01b03163314611c625760405162461bcd60e51b8152600401610983906132c6565b6001600160a01b038116611cc75760405162461bcd60e51b815260206004820152602660248201527f4f776e61626c653a206e6577206f776e657220697320746865207a65726f206160448201526564647265737360d01b6064820152608401610983565b610d008161228b565b60008281526005602052604080822080546001600160a01b0319166001600160a01b0387811691821790925591518593918516917f8c5be1e5ebec7d5bd14f71427d1e84f3dd0314c0f7b2291e5b200ac8c7c3b92591a4505050565b6000611d37826120e2565b80519091506000906001600160a01b0316336001600160a01b03161480611d6e575033611d6384610918565b6001600160a01b0316145b80611d8057508151611d8090336107cb565b905080611dea5760405162461bcd60e51b815260206004820152603260248201527f455243373231413a207472616e736665722063616c6c6572206973206e6f74206044820152711bdddb995c881b9bdc88185c1c1c9bdd995960721b6064820152608401610983565b846001600160a01b031682600001516001600160a01b031614611e5e5760405162461bcd60e51b815260206004820152602660248201527f455243373231413a207472616e736665722066726f6d20696e636f72726563746044820152651037bbb732b960d11b6064820152608401610983565b6001600160a01b038416611ec25760405162461bcd60e51b815260206004820152602560248201527f455243373231413a207472616e7366657220746f20746865207a65726f206164604482015264647265737360d81b6064820152608401610983565b611ed26000848460000151611cd0565b6001600160a01b0385166000908152600460205260408120805460019290611f049084906001600160801b03166135cd565b82546101009290920a6001600160801b038181021990931691831602179091556001600160a01b03861660009081526004602052604081208054600194509092611f50918591166135f5565b82546001600160801b039182166101009390930a9283029190920219909116179055506040805180820182526001600160a01b0380871682526001600160401b03428116602080850191825260008981526003909152948520935184549151909216600160a01b026001600160e01b03199091169190921617179055611fd78460016132fb565b6000818152600360205260409020549091506001600160a01b031661206857612001816000541190565b156120685760408051808201825284516001600160a01b0390811682526020808701516001600160401b039081168285019081526000878152600390935294909120925183549451909116600160a01b026001600160e01b03199094169116179190911790555b83856001600160a01b0316876001600160a01b03167fddf252ad1be2c89b69c2b068fc378daa952ba7f163c4a11628f55a4df523b3ef60405160405180910390a45b505050505050565b6111b78282604051806020016040528060008152506125a7565b6000826120d98584612881565b14949350505050565b6040805180820190915260008082526020820152612101826000541190565b6121605760405162461bcd60e51b815260206004820152602a60248201527f455243373231413a206f776e657220717565727920666f72206e6f6e657869736044820152693a32b73a103a37b5b2b760b11b6064820152608401610983565b60007f000000000000000000000000000000000000000000000000000000000000000083106121c1576121b37f000000000000000000000000000000000000000000000000000000000000000084613617565b6121be9060016132fb565b90505b825b81811061222a576000818152600360209081526040918290208251808401909352546001600160a01b038116808452600160a01b9091046001600160401b0316918301919091521561221757949350505050565b50806122228161362e565b9150506121c3565b5060405162461bcd60e51b815260206004820152602f60248201527f455243373231413a20756e61626c6520746f2064657465726d696e652074686560448201526e1037bbb732b91037b3103a37b5b2b760891b6064820152608401610983565b600880546001600160a01b038381166001600160a01b0319831681179093556040519116919082907f8be0079c531659141344cd1fd0a4f28419497f9722a3daafe3b4186f6b6457e090600090a35050565b6012546000906001600160a01b03166122f683856128ed565b6001600160a01b0316149392505050565b60006001600160a01b0384163b156123fd57604051630a85bd0160e11b81526001600160a01b0385169063150b7a029061234b903390899088908890600401613645565b6020604051808303816000875af1925050508015612386575060408051601f3d908101601f1916820190925261238391810190613682565b60015b6123e3573d8080156123b4576040519150601f19603f3d011682016040523d82523d6000602084013e6123b9565b606091505b5080516000036123db5760405162461bcd60e51b8152600401610983906134b0565b805181602001fd5b6001600160e01b031916630a85bd0160e11b149050612401565b5060015b949350505050565b6060816000036124305750506040805180820190915260018152600360fc1b602082015290565b8160005b811561245a5780612444816132ad565b91506124539050600a83613486565b9150612434565b6000816001600160401b0381111561247457612474612e1e565b6040519080825280601f01601f19166020018201604052801561249e576020820181803683370190505b5090505b8415612401576124b3600183613617565b91506124c0600a8661369f565b6124cb9060306132fb565b60f81b8183815181106124e0576124e061349a565b60200101906001600160f81b031916908160001a905350612502600a86613486565b94506124a2565b60006001600160a01b03821661257b5760405162461bcd60e51b815260206004820152603160248201527f455243373231413a206e756d626572206d696e74656420717565727920666f7260448201527020746865207a65726f206164647265737360781b6064820152608401610983565b506001600160a01b0316600090815260046020526040902054600160801b90046001600160801b031690565b6000546001600160a01b03841661260a5760405162461bcd60e51b815260206004820152602160248201527f455243373231413a206d696e7420746f20746865207a65726f206164647265736044820152607360f81b6064820152608401610983565b612615816000541190565b156126625760405162461bcd60e51b815260206004820152601d60248201527f455243373231413a20746f6b656e20616c7265616479206d696e7465640000006044820152606401610983565b7f00000000000000000000000000000000000000000000000000000000000000008311156126dd5760405162461bcd60e51b815260206004820152602260248201527f455243373231413a207175616e7469747920746f206d696e7420746f6f2068696044820152610ced60f31b6064820152608401610983565b6001600160a01b0384166000908152600460209081526040918290208251808401845290546001600160801b038082168352600160801b90910416918101919091528151808301909252805190919081906127399087906135f5565b6001600160801b0316815260200185836020015161275791906135f5565b6001600160801b039081169091526001600160a01b0380881660008181526004602090815260408083208751978301518716600160801b029790961696909617909455845180860186529182526001600160401b034281168386019081528883526003909552948120915182549451909516600160a01b026001600160e01b031990941694909216939093179190911790915582905b858110156128765760405182906001600160a01b038916906000907fddf252ad1be2c89b69c2b068fc378daa952ba7f163c4a11628f55a4df523b3ef908290a461283a6000888488612307565b6128565760405162461bcd60e51b8152600401610983906134b0565b81612860816132ad565b925050808061286e906132ad565b9150506127ed565b5060008190556120aa565b600081815b84518110156115155760008582815181106128a3576128a361349a565b602002602001015190508083116128c957600083815260208290526040902092506128da565b600081815260208490526040902092505b50806128e5816132ad565b915050612886565b60008060006128fc8585612909565b9150915061151581612977565b600080825160410361293f5760208301516040840151606085015160001a61293387828585612b2d565b94509450505050612970565b8251604003612968576020830151604084015161295d868383612c1a565b935093505050612970565b506000905060025b9250929050565b600081600481111561298b5761298b6136b3565b036129935750565b60018160048111156129a7576129a76136b3565b036129f45760405162461bcd60e51b815260206004820152601860248201527f45434453413a20696e76616c6964207369676e617475726500000000000000006044820152606401610983565b6002816004811115612a0857612a086136b3565b03612a555760405162461bcd60e51b815260206004820152601f60248201527f45434453413a20696e76616c6964207369676e6174757265206c656e677468006044820152606401610983565b6003816004811115612a6957612a696136b3565b03612ac15760405162461bcd60e51b815260206004820152602260248201527f45434453413a20696e76616c6964207369676e6174757265202773272076616c604482015261756560f01b6064820152608401610983565b6004816004811115612ad557612ad56136b3565b03610d005760405162461bcd60e51b815260206004820152602260248201527f45434453413a20696e76616c6964207369676e6174757265202776272076616c604482015261756560f01b6064820152608401610983565b6000807f7fffffffffffffffffffffffffffffff5d576e7357a4501ddfe92f46681b20a0831115612b645750600090506003612c11565b8460ff16601b14158015612b7c57508460ff16601c14155b15612b8d5750600090506004612c11565b6040805160008082526020820180845289905260ff881692820192909252606081018690526080810185905260019060a0016020604051602081039080840390855afa158015612be1573d6000803e3d6000fd5b5050604051601f1901519150506001600160a01b038116612c0a57600060019250925050612c11565b9150600090505b94509492505050565b6000806001600160ff1b03831681612c3760ff86901c601b6132fb565b9050612c4587828885612b2d565b935093505050935093915050565b828054612c5f9061325d565b90600052602060002090601f016020900481019282612c815760008555612cc7565b82601f10612c9a5782800160ff19823516178555612cc7565b82800160010185558215612cc7579182015b82811115612cc7578235825591602001919060010190612cac565b5061127b9291505b8082111561127b5760008155600101612ccf565b6001600160e01b031981168114610d0057600080fd5b600060208284031215612d0b57600080fd5b8135612d1681612ce3565b9392505050565b60005b83811015612d38578181015183820152602001612d20565b838111156117945750506000910152565b60008151808452612d61816020860160208601612d1d565b601f01601f19169290920160200192915050565b602081526000612d166020830184612d49565b600060208284031215612d9a57600080fd5b5035919050565b80356001600160a01b0381168114611c2857600080fd5b60008060408385031215612dcb57600080fd5b612dd483612da1565b946020939093013593505050565b600080600060608486031215612df757600080fd5b612e0084612da1565b9250612e0e60208501612da1565b9150604084013590509250925092565b634e487b7160e01b600052604160045260246000fd5b604051601f8201601f191681016001600160401b0381118282101715612e5c57612e5c612e1e565b604052919050565b600082601f830112612e7557600080fd5b813560206001600160401b03821115612e9057612e90612e1e565b8160051b612e9f828201612e34565b9283528481018201928281019087851115612eb957600080fd5b83870192505b84831015612ed857823582529183019190830190612ebf565b979650505050505050565b600080600060608486031215612ef857600080fd5b83356001600160401b03811115612f0e57600080fd5b612f1a86828701612e64565b9660208601359650604090950135949350505050565b60008083601f840112612f4257600080fd5b5081356001600160401b03811115612f5957600080fd5b60208301915083602082850101111561297057600080fd5b60008060208385031215612f8457600080fd5b82356001600160401b03811115612f9a57600080fd5b612fa685828601612f30565b90969095509350505050565b600060208284031215612fc457600080fd5b612d1682612da1565b60008060408385031215612fe057600080fd5b50508035926020909101359150565b6020808252825182820181905260009190848201906040850190845b818110156130275783518352928401929184019160010161300b565b50909695505050505050565b60006020828403121561304557600080fd5b81356001600160401b0381111561305b57600080fd5b61240184828501612e64565b80358015158114611c2857600080fd5b60008060006040848603121561308c57600080fd5b61309584613067565b925060208401356001600160401b038111156130b057600080fd5b6130bc86828701612f30565b9497909650939450505050565b600080604083850312156130dc57600080fd5b6130e583612da1565b91506130f360208401613067565b90509250929050565b600082601f83011261310d57600080fd5b81356001600160401b0381111561312657613126612e1e565b613139601f8201601f1916602001612e34565b81815284602083860101111561314e57600080fd5b816020850160208301376000918101602001919091529392505050565b60008060006060848603121561318057600080fd5b8335925060208401356001600160401b03808216821461319f57600080fd5b909250604085013590808211156131b557600080fd5b506131c2868287016130fc565b9150509250925092565b600080600080608085870312156131e257600080fd5b6131eb85612da1565b93506131f960208601612da1565b92506040850135915060608501356001600160401b0381111561321b57600080fd5b613227878288016130fc565b91505092959194509250565b6000806040838503121561324657600080fd5b61324f83612da1565b91506130f360208401612da1565b600181811c9082168061327157607f821691505b60208210810361329157634e487b7160e01b600052602260045260246000fd5b50919050565b634e487b7160e01b600052601160045260246000fd5b6000600182016132bf576132bf613297565b5060010190565b6020808252818101527f4f776e61626c653a2063616c6c6572206973206e6f7420746865206f776e6572604082015260600190565b6000821982111561330e5761330e613297565b500190565b6020808252601190820152704e4f545f454e4f5547485f535550504c5960781b604082015260600190565b6020808252601d908201527f43414e4e4f545f4d494e545f4f4e5f5448455f53414d455f424c4f434b000000604082015260600190565b6020808252601d908201527f434f4e5452414354535f4e4f545f414c4c4f5745445f544f5f4d494e54000000604082015260600190565b6020808252601d908201527f5055424c49435f4d494e545f49535f4e4f545f5945545f414354495645000000604082015260600190565b6020808252601e908201527f50524553414c455f4d494e545f49535f4e4f545f5945545f4143544956450000604082015260600190565b6020808252601b908201527f465245455f4d494e545f49535f4e4f545f5945545f4143544956450000000000604082015260600190565b600081600019048311821515161561346b5761346b613297565b500290565b634e487b7160e01b600052601260045260246000fd5b60008261349557613495613470565b500490565b634e487b7160e01b600052603260045260246000fd5b60208082526033908201527f455243373231413a207472616e7366657220746f206e6f6e204552433732315260408201527232b1b2b4bb32b91034b6b83632b6b2b73a32b960691b606082015260800190565b8054600090600181811c908083168061351d57607f831692505b6020808410820361353e57634e487b7160e01b600052602260045260246000fd5b818015613552576001811461356357613590565b60ff19861689528489019650613590565b60008881526020902060005b868110156135885781548b82015290850190830161356f565b505084890196505b50505050505092915050565b60006135a88285613503565b83516135b8818360208801612d1d565b01949350505050565b6000612d168284613503565b60006001600160801b03838116908316818110156135ed576135ed613297565b039392505050565b60006001600160801b038083168185168083038211156135b8576135b8613297565b60008282101561362957613629613297565b500390565b60008161363d5761363d613297565b506000190190565b6001600160a01b038581168252841660208201526040810183905260806060820181905260009061367890830184612d49565b9695505050505050565b60006020828403121561369457600080fd5b8151612d1681612ce3565b6000826136ae576136ae613470565b500690565b634e487b7160e01b600052602160045260246000fdfea26469706673582212203afaaf8df49855250687e25141e7d8d55a8f36b1ba31103234a4139433c8a32f64736f6c634300080d0033",
  "immutableReferences": {
    "1396": [
      {
        "length": 32,
        "start": 8548
      },
      {
        "length": 32,
        "start": 8590
      },
      {
        "length": 32,
        "start": 9828
      }
    ]
  },
  "source": "// SPDX-License-Identifier: MIT\npragma solidity ^0.8.0;\nimport \"@openzeppelin/contracts/access/Ownable.sol\";\nimport \"@openzeppelin/contracts/utils/Strings.sol\";\nimport \"@openzeppelin/contracts/utils/cryptography/MerkleProof.sol\";\nimport \"@openzeppelin/contracts/utils/cryptography/ECDSA.sol\";\nimport \"./ERC721A.sol\";\n\ncontract Metakages is ERC721A, Ownable {\n    uint256 public constant RESERVE_SUPPLY = 30;\n    uint256 public constant MAX_SUPPLY = 3000;\n\n    uint256 public WL_PRICE = 0.09 ether;\n    uint256 public PUBLIC_PRICE = 0.1 ether;\n\n    uint256 public constant MINT_LIMIT = 4;\n\n    bool public isPublicSaleActive = false;\n    bool public isPresaleActive = false;\n\n    bool _revealed = false;\n\n    string private baseURI = \"\";\n\n    bytes32 presaleRoot_1;\n    bytes32 presaleRoot_2;\n    bytes32 freemintRoot;\n\n    mapping(address => bool) public freeMints;\n    mapping(address => uint256) addressBlockBought;\n\n    address public constant ADDRESS_1 =\n        0x792c97d764148134AEA12B4f0Df362076F770C31; //Owner\n    address public constant ADDRESS_2 =\n        0x188A3c584F0dE9ee0eABe04316A94A41F0867C0C; //ZL\n\n    address signer;\n    mapping(bytes32 => bool) public usedDigests;\n\n    constructor() ERC721A(\"Metakages\", \"METAKAGES\", 30, 3000) {}\n\n    modifier isSecured(uint8 mintType) {\n        require(\n            addressBlockBought[msg.sender] < block.timestamp,\n            \"CANNOT_MINT_ON_THE_SAME_BLOCK\"\n        );\n        require(tx.origin == msg.sender, \"CONTRACTS_NOT_ALLOWED_TO_MINT\");\n\n        if (mintType == 1) {\n            require(isPublicSaleActive, \"PUBLIC_MINT_IS_NOT_YET_ACTIVE\");\n        }\n\n        if (mintType == 2) {\n            require(isPresaleActive, \"PRESALE_MINT_IS_NOT_YET_ACTIVE\");\n        }\n        if (mintType == 3) {\n            require(isPresaleActive, \"FREE_MINT_IS_NOT_YET_ACTIVE\");\n        }\n\n        _;\n    }\n\n    //Essential\n    function mint(\n        uint256 numberOfTokens,\n        uint64 expireTime,\n        bytes memory sig\n    ) external payable isSecured(1) {\n        bytes32 digest = keccak256(\n            abi.encodePacked(msg.sender, expireTime, numberOfTokens)\n        );\n        require(isAuthorized(sig, digest), \"CONTRACT_MINT_NOT_ALLOWED\");\n        require(block.timestamp <= expireTime, \"EXPIRED_SIGNATURE\");\n        require(!usedDigests[digest], \"SIGNATURE_LOOPING_NOT_ALLOWED\");\n        require(\n            numberOfTokens + totalSupply() <= MAX_SUPPLY,\n            \"NOT_ENOUGH_SUPPLY\"\n        );\n        require(\n            numberMinted(msg.sender) + numberOfTokens <= MINT_LIMIT,\n            \"EXCEED_MINT_LIMIT\"\n        );\n        require(msg.value == PUBLIC_PRICE * numberOfTokens, \"INVALID_AMOUNT\");\n        addressBlockBought[msg.sender] = block.timestamp;\n        usedDigests[digest] = true;\n        _safeMint(msg.sender, numberOfTokens);\n    }\n\n    function presaleMint(\n        bytes32[] memory proof,\n        uint256 numberOfTokens,\n        uint256 maxPresaleMint\n    ) external payable isSecured(2) {\n        bytes32 leaf = keccak256(abi.encodePacked(msg.sender));\n        //Check KL type\n        if (maxPresaleMint == 1) {\n            require(\n                MerkleProof.verify(proof, presaleRoot_1, leaf),\n                \"PROOF_INVALID\"\n            );\n        } else if (maxPresaleMint == 2) {\n            require(\n                MerkleProof.verify(proof, presaleRoot_2, leaf),\n                \"PROOF_INVALID\"\n            );\n        } else {\n            revert(\"INVALID_MAX_PRESALE_MINT\");\n        }\n        require(\n            numberMinted(msg.sender) + numberOfTokens <= MINT_LIMIT,\n            \"EXCEED_MINT_LIMIT\"\n        );\n        require(\n            numberOfTokens + totalSupply() <= MAX_SUPPLY,\n            \"NOT_ENOUGH_SUPPLY\"\n        );\n        if (freeMints[msg.sender]) {\n            require(\n                numberMinted(msg.sender) + numberOfTokens <= maxPresaleMint + 1,\n                \"EXCEED_PRESALE_MINT_LIMIT\"\n            );\n        } else {\n            require(\n                numberMinted(msg.sender) + numberOfTokens <= maxPresaleMint,\n                \"EXCEED_PRESALE_MINT_LIMIT\"\n            );\n        }\n        require(msg.value == WL_PRICE * numberOfTokens, \"INVALID_AMOUNT\");\n        addressBlockBought[msg.sender] = block.timestamp;\n        _safeMint(msg.sender, numberOfTokens);\n    }\n\n    function freeMint(bytes32[] memory proof) external isSecured(3) {\n        bytes32 leaf = keccak256(abi.encodePacked(msg.sender));\n        require(MerkleProof.verify(proof, freemintRoot, leaf), \"PROOF_INVALID\");\n        require(1 + totalSupply() <= MAX_SUPPLY, \"NOT_ENOUGH_SUPPLY\");\n        require(!freeMints[msg.sender], \"ALREADY_FREE_MINTED\");\n        addressBlockBought[msg.sender] = block.timestamp;\n        freeMints[msg.sender] = true;\n        _safeMint(msg.sender, 1);\n    }\n\n    function devMint(uint256 numberOfTokens) external onlyOwner {\n        require(\n            numberOfTokens + totalSupply() <= MAX_SUPPLY,\n            \"NOT_ENOUGH_SUPPLY\"\n        );\n        require(\n            numberOfTokens + numberMinted((msg.sender)) <= RESERVE_SUPPLY,\n            \"NOT_ENOUGH_RESERVE_SUPPLY\"\n        );\n        _safeMint(msg.sender, numberOfTokens);\n    }\n\n    //Essential\n    function setBaseURI(string calldata URI) external onlyOwner {\n        baseURI = URI;\n    }\n\n    function reveal(bool revealed, string calldata _baseURI) public onlyOwner {\n        _revealed = revealed;\n        baseURI = _baseURI;\n    }\n\n    //Essential\n    function setPublicSaleStatus() external onlyOwner {\n        isPublicSaleActive = !isPublicSaleActive;\n    }\n\n    function setPreSaleStatus() external onlyOwner {\n        isPresaleActive = !isPresaleActive;\n    }\n\n    //Essential\n\n    function withdraw() external onlyOwner {\n        uint256 balance = address(this).balance;\n        require(balance > 0, \"No balance to withdraw\");\n        payable(ADDRESS_2).transfer((balance * 1500) / 10000);\n        payable(ADDRESS_1).transfer(address(this).balance);\n    }\n\n    function tokenURI(uint256 tokenId)\n        public\n        view\n        virtual\n        override\n        returns (string memory)\n    {\n        if (_revealed) {\n            return string(abi.encodePacked(baseURI, Strings.toString(tokenId)));\n        } else {\n            return string(abi.encodePacked(baseURI));\n        }\n    }\n\n    function tokensOfOwner(address owner)\n        public\n        view\n        returns (uint256[] memory)\n    {\n        uint256 tokenCount = balanceOf(owner);\n        uint256[] memory tokenIds = new uint256[](tokenCount);\n        for (uint256 i = 0; i < tokenCount; i++) {\n            tokenIds[i] = tokenOfOwnerByIndex(owner, i);\n        }\n        return tokenIds;\n    }\n\n    function numberMinted(address owner) public view returns (uint256) {\n        return _numberMinted(owner);\n    }\n\n    function setPreSaleRoot(bytes32 _presaleRoot_1, bytes32 _presaleRoot_2)\n        external\n        onlyOwner\n    {\n        presaleRoot_1 = _presaleRoot_1;\n        presaleRoot_2 = _presaleRoot_2;\n    }\n\n    function setFreeMintRoot(bytes32 _freemintRoot) external onlyOwner {\n        freemintRoot = _freemintRoot;\n    }\n\n    function setSigner(address _signer) external onlyOwner {\n        signer = _signer;\n    }\n\n    function isAuthorized(bytes memory sig, bytes32 digest)\n        private\n        view\n        returns (bool)\n    {\n        return ECDSA.recover(digest, sig) == signer;\n    }\n}\n",
  "sourcePath": "/Users/jeremiahjrvalero/Documents/nft-projects/metakages/metakages-contract/contracts/Metakages.sol",
  "compiler": {
    "name": "solc",
    "version": "0.8.13+commit.abaa5c0e.Emscripten.clang"
  },
  "schemaVersion": "3.4.6",
  "updatedAt": "2022-04-07T01:22:31.293Z",
  "networkType": "ethereum",
  "devdoc": {
    "kind": "dev",
    "methods": {
      "approve(address,uint256)": {
        "details": "See {IERC721-approve}."
      },
      "balanceOf(address)": {
        "details": "See {IERC721-balanceOf}."
      },
      "getApproved(uint256)": {
        "details": "See {IERC721-getApproved}."
      },
      "isApprovedForAll(address,address)": {
        "details": "See {IERC721-isApprovedForAll}."
      },
      "name()": {
        "details": "See {IERC721Metadata-name}."
      },
      "owner()": {
        "details": "Returns the address of the current owner."
      },
      "ownerOf(uint256)": {
        "details": "See {IERC721-ownerOf}."
      },
      "renounceOwnership()": {
        "details": "Leaves the contract without owner. It will not be possible to call `onlyOwner` functions anymore. Can only be called by the current owner. NOTE: Renouncing ownership will leave the contract without an owner, thereby removing any functionality that is only available to the owner."
      },
      "safeTransferFrom(address,address,uint256)": {
        "details": "See {IERC721-safeTransferFrom}."
      },
      "safeTransferFrom(address,address,uint256,bytes)": {
        "details": "See {IERC721-safeTransferFrom}."
      },
      "setApprovalForAll(address,bool)": {
        "details": "See {IERC721-setApprovalForAll}."
      },
      "supportsInterface(bytes4)": {
        "details": "See {IERC165-supportsInterface}."
      },
      "symbol()": {
        "details": "See {IERC721Metadata-symbol}."
      },
      "tokenByIndex(uint256)": {
        "details": "See {IERC721Enumerable-tokenByIndex}."
      },
      "tokenOfOwnerByIndex(address,uint256)": {
        "details": "See {IERC721Enumerable-tokenOfOwnerByIndex}. This read function is O(collectionSize). If calling from a separate contract, be sure to test gas first. It may also degrade with extremely large collection sizes (e.g >> 10000), test for your use case."
      },
      "tokenURI(uint256)": {
        "details": "See {IERC721Metadata-tokenURI}."
      },
      "totalSupply()": {
        "details": "See {IERC721Enumerable-totalSupply}."
      },
      "transferFrom(address,address,uint256)": {
        "details": "See {IERC721-transferFrom}."
      },
      "transferOwnership(address)": {
        "details": "Transfers ownership of the contract to a new account (`newOwner`). Can only be called by the current owner."
      }
    },
    "version": 1
  },
  "userdoc": {
    "kind": "user",
    "methods": {},
    "version": 1
  }
}