{
  "contractName": "Verb",
  "abi": [
    {
      "inputs": [
        {
          "internalType": "uint256",
          "name": "_dutchAuctionStartTime",
          "type": "uint256"
        },
        {
          "internalType": "uint256",
          "name": "_presaleStartTime",
          "type": "uint256"
        },
        {
          "internalType": "uint256",
          "name": "_publicSaleStartTime",
          "type": "uint256"
        },
        {
          "internalType": "uint256",
          "name": "_refundEndTime",
          "type": "uint256"
        }
      ],
      "stateMutability": "nonpayable",
      "type": "constructor"
    },
    {
      "anonymous": false,
      "inputs": [
        {
          "indexed": true,
          "internalType": "address",
          "name": "owner",
          "type": "address"
        },
        {
          "indexed": true,
          "internalType": "address",
          "name": "approved",
          "type": "address"
        },
        {
          "indexed": true,
          "internalType": "uint256",
          "name": "tokenId",
          "type": "uint256"
        }
      ],
      "name": "Approval",
      "type": "event"
    },
    {
      "anonymous": false,
      "inputs": [
        {
          "indexed": true,
          "internalType": "address",
          "name": "owner",
          "type": "address"
        },
        {
          "indexed": true,
          "internalType": "address",
          "name": "operator",
          "type": "address"
        },
        {
          "indexed": false,
          "internalType": "bool",
          "name": "approved",
          "type": "bool"
        }
      ],
      "name": "ApprovalForAll",
      "type": "event"
    },
    {
      "anonymous": false,
      "inputs": [
        {
          "indexed": true,
          "internalType": "address",
          "name": "previousOwner",
          "type": "address"
        },
        {
          "indexed": true,
          "internalType": "address",
          "name": "newOwner",
          "type": "address"
        }
      ],
      "name": "OwnershipTransferred",
      "type": "event"
    },
    {
      "anonymous": false,
      "inputs": [
        {
          "indexed": true,
          "internalType": "address",
          "name": "from",
          "type": "address"
        },
        {
          "indexed": true,
          "internalType": "address",
          "name": "to",
          "type": "address"
        },
        {
          "indexed": true,
          "internalType": "uint256",
          "name": "tokenId",
          "type": "uint256"
        }
      ],
      "name": "Transfer",
      "type": "event"
    },
    {
      "inputs": [],
      "name": "ADDRESS_1",
      "outputs": [
        {
          "internalType": "address",
          "name": "",
          "type": "address"
        }
      ],
      "stateMutability": "view",
      "type": "function",
      "constant": true
    },
    {
      "inputs": [],
      "name": "ADDRESS_2",
      "outputs": [
        {
          "internalType": "address",
          "name": "",
          "type": "address"
        }
      ],
      "stateMutability": "view",
      "type": "function",
      "constant": true
    },
    {
      "inputs": [],
      "name": "DUTCH_MINT_LIMIT",
      "outputs": [
        {
          "internalType": "uint256",
          "name": "",
          "type": "uint256"
        }
      ],
      "stateMutability": "view",
      "type": "function",
      "constant": true
    },
    {
      "inputs": [],
      "name": "DUTCH_SUPPLY",
      "outputs": [
        {
          "internalType": "uint256",
          "name": "",
          "type": "uint256"
        }
      ],
      "stateMutability": "view",
      "type": "function",
      "constant": true
    },
    {
      "inputs": [],
      "name": "LAST_PRICE_DA",
      "outputs": [
        {
          "internalType": "uint256",
          "name": "",
          "type": "uint256"
        }
      ],
      "stateMutability": "view",
      "type": "function",
      "constant": true
    },
    {
      "inputs": [],
      "name": "MAX_SUPPLY",
      "outputs": [
        {
          "internalType": "uint256",
          "name": "",
          "type": "uint256"
        }
      ],
      "stateMutability": "view",
      "type": "function",
      "constant": true
    },
    {
      "inputs": [],
      "name": "MINT_LIMIT",
      "outputs": [
        {
          "internalType": "uint256",
          "name": "",
          "type": "uint256"
        }
      ],
      "stateMutability": "view",
      "type": "function",
      "constant": true
    },
    {
      "inputs": [],
      "name": "PRESALE_MINT_LIMIT",
      "outputs": [
        {
          "internalType": "uint256",
          "name": "",
          "type": "uint256"
        }
      ],
      "stateMutability": "view",
      "type": "function",
      "constant": true
    },
    {
      "inputs": [],
      "name": "RESERVE_SUPPLY",
      "outputs": [
        {
          "internalType": "uint256",
          "name": "",
          "type": "uint256"
        }
      ],
      "stateMutability": "view",
      "type": "function",
      "constant": true
    },
    {
      "inputs": [
        {
          "internalType": "address",
          "name": "to",
          "type": "address"
        },
        {
          "internalType": "uint256",
          "name": "tokenId",
          "type": "uint256"
        }
      ],
      "name": "approve",
      "outputs": [],
      "stateMutability": "nonpayable",
      "type": "function"
    },
    {
      "inputs": [
        {
          "internalType": "address",
          "name": "owner",
          "type": "address"
        }
      ],
      "name": "balanceOf",
      "outputs": [
        {
          "internalType": "uint256",
          "name": "",
          "type": "uint256"
        }
      ],
      "stateMutability": "view",
      "type": "function",
      "constant": true
    },
    {
      "inputs": [],
      "name": "dutchAuctionEndTime",
      "outputs": [
        {
          "internalType": "uint256",
          "name": "",
          "type": "uint256"
        }
      ],
      "stateMutability": "view",
      "type": "function",
      "constant": true
    },
    {
      "inputs": [],
      "name": "dutchAuctionStartTime",
      "outputs": [
        {
          "internalType": "uint256",
          "name": "",
          "type": "uint256"
        }
      ],
      "stateMutability": "view",
      "type": "function",
      "constant": true
    },
    {
      "inputs": [],
      "name": "dutchMints",
      "outputs": [
        {
          "internalType": "uint256",
          "name": "",
          "type": "uint256"
        }
      ],
      "stateMutability": "view",
      "type": "function",
      "constant": true
    },
    {
      "inputs": [
        {
          "internalType": "uint256",
          "name": "tokenId",
          "type": "uint256"
        }
      ],
      "name": "getApproved",
      "outputs": [
        {
          "internalType": "address",
          "name": "",
          "type": "address"
        }
      ],
      "stateMutability": "view",
      "type": "function",
      "constant": true
    },
    {
      "inputs": [
        {
          "internalType": "address",
          "name": "owner",
          "type": "address"
        },
        {
          "internalType": "address",
          "name": "operator",
          "type": "address"
        }
      ],
      "name": "isApprovedForAll",
      "outputs": [
        {
          "internalType": "bool",
          "name": "",
          "type": "bool"
        }
      ],
      "stateMutability": "view",
      "type": "function",
      "constant": true
    },
    {
      "inputs": [],
      "name": "name",
      "outputs": [
        {
          "internalType": "string",
          "name": "",
          "type": "string"
        }
      ],
      "stateMutability": "view",
      "type": "function",
      "constant": true
    },
    {
      "inputs": [],
      "name": "nextOwnerToExplicitlySet",
      "outputs": [
        {
          "internalType": "uint256",
          "name": "",
          "type": "uint256"
        }
      ],
      "stateMutability": "view",
      "type": "function",
      "constant": true
    },
    {
      "inputs": [],
      "name": "owner",
      "outputs": [
        {
          "internalType": "address",
          "name": "",
          "type": "address"
        }
      ],
      "stateMutability": "view",
      "type": "function",
      "constant": true
    },
    {
      "inputs": [
        {
          "internalType": "uint256",
          "name": "tokenId",
          "type": "uint256"
        }
      ],
      "name": "ownerOf",
      "outputs": [
        {
          "internalType": "address",
          "name": "",
          "type": "address"
        }
      ],
      "stateMutability": "view",
      "type": "function",
      "constant": true
    },
    {
      "inputs": [],
      "name": "presaleStartTime",
      "outputs": [
        {
          "internalType": "uint256",
          "name": "",
          "type": "uint256"
        }
      ],
      "stateMutability": "view",
      "type": "function",
      "constant": true
    },
    {
      "inputs": [],
      "name": "publicSaleStartTime",
      "outputs": [
        {
          "internalType": "uint256",
          "name": "",
          "type": "uint256"
        }
      ],
      "stateMutability": "view",
      "type": "function",
      "constant": true
    },
    {
      "inputs": [],
      "name": "refundEndTime",
      "outputs": [
        {
          "internalType": "uint256",
          "name": "",
          "type": "uint256"
        }
      ],
      "stateMutability": "view",
      "type": "function",
      "constant": true
    },
    {
      "inputs": [],
      "name": "renounceOwnership",
      "outputs": [],
      "stateMutability": "nonpayable",
      "type": "function"
    },
    {
      "inputs": [
        {
          "internalType": "address",
          "name": "from",
          "type": "address"
        },
        {
          "internalType": "address",
          "name": "to",
          "type": "address"
        },
        {
          "internalType": "uint256",
          "name": "tokenId",
          "type": "uint256"
        }
      ],
      "name": "safeTransferFrom",
      "outputs": [],
      "stateMutability": "nonpayable",
      "type": "function"
    },
    {
      "inputs": [
        {
          "internalType": "address",
          "name": "from",
          "type": "address"
        },
        {
          "internalType": "address",
          "name": "to",
          "type": "address"
        },
        {
          "internalType": "uint256",
          "name": "tokenId",
          "type": "uint256"
        },
        {
          "internalType": "bytes",
          "name": "_data",
          "type": "bytes"
        }
      ],
      "name": "safeTransferFrom",
      "outputs": [],
      "stateMutability": "nonpayable",
      "type": "function"
    },
    {
      "inputs": [
        {
          "internalType": "address",
          "name": "operator",
          "type": "address"
        },
        {
          "internalType": "bool",
          "name": "approved",
          "type": "bool"
        }
      ],
      "name": "setApprovalForAll",
      "outputs": [],
      "stateMutability": "nonpayable",
      "type": "function"
    },
    {
      "inputs": [
        {
          "internalType": "bytes4",
          "name": "interfaceId",
          "type": "bytes4"
        }
      ],
      "name": "supportsInterface",
      "outputs": [
        {
          "internalType": "bool",
          "name": "",
          "type": "bool"
        }
      ],
      "stateMutability": "view",
      "type": "function",
      "constant": true
    },
    {
      "inputs": [],
      "name": "symbol",
      "outputs": [
        {
          "internalType": "string",
          "name": "",
          "type": "string"
        }
      ],
      "stateMutability": "view",
      "type": "function",
      "constant": true
    },
    {
      "inputs": [
        {
          "internalType": "uint256",
          "name": "index",
          "type": "uint256"
        }
      ],
      "name": "tokenByIndex",
      "outputs": [
        {
          "internalType": "uint256",
          "name": "",
          "type": "uint256"
        }
      ],
      "stateMutability": "view",
      "type": "function",
      "constant": true
    },
    {
      "inputs": [
        {
          "internalType": "address",
          "name": "owner",
          "type": "address"
        },
        {
          "internalType": "uint256",
          "name": "index",
          "type": "uint256"
        }
      ],
      "name": "tokenOfOwnerByIndex",
      "outputs": [
        {
          "internalType": "uint256",
          "name": "",
          "type": "uint256"
        }
      ],
      "stateMutability": "view",
      "type": "function",
      "constant": true
    },
    {
      "inputs": [],
      "name": "totalSupply",
      "outputs": [
        {
          "internalType": "uint256",
          "name": "",
          "type": "uint256"
        }
      ],
      "stateMutability": "view",
      "type": "function",
      "constant": true
    },
    {
      "inputs": [
        {
          "internalType": "address",
          "name": "from",
          "type": "address"
        },
        {
          "internalType": "address",
          "name": "to",
          "type": "address"
        },
        {
          "internalType": "uint256",
          "name": "tokenId",
          "type": "uint256"
        }
      ],
      "name": "transferFrom",
      "outputs": [],
      "stateMutability": "nonpayable",
      "type": "function"
    },
    {
      "inputs": [
        {
          "internalType": "address",
          "name": "newOwner",
          "type": "address"
        }
      ],
      "name": "transferOwnership",
      "outputs": [],
      "stateMutability": "nonpayable",
      "type": "function"
    },
    {
      "inputs": [
        {
          "internalType": "bytes32",
          "name": "",
          "type": "bytes32"
        }
      ],
      "name": "usedDigests",
      "outputs": [
        {
          "internalType": "bool",
          "name": "",
          "type": "bool"
        }
      ],
      "stateMutability": "view",
      "type": "function",
      "constant": true
    },
    {
      "inputs": [
        {
          "internalType": "address",
          "name": "",
          "type": "address"
        }
      ],
      "name": "userPurchase",
      "outputs": [
        {
          "internalType": "uint256",
          "name": "dutchSpent",
          "type": "uint256"
        },
        {
          "internalType": "uint256",
          "name": "dutchMinted",
          "type": "uint256"
        },
        {
          "internalType": "uint256",
          "name": "presaleMinted",
          "type": "uint256"
        },
        {
          "internalType": "bool",
          "name": "claimed",
          "type": "bool"
        }
      ],
      "stateMutability": "view",
      "type": "function",
      "constant": true
    },
    {
      "inputs": [
        {
          "internalType": "uint256",
          "name": "numberOfTokens",
          "type": "uint256"
        },
        {
          "internalType": "uint64",
          "name": "expireTime",
          "type": "uint64"
        },
        {
          "internalType": "bytes",
          "name": "sig",
          "type": "bytes"
        }
      ],
      "name": "mint",
      "outputs": [],
      "stateMutability": "payable",
      "type": "function",
      "payable": true
    },
    {
      "inputs": [
        {
          "internalType": "bytes32[]",
          "name": "proof",
          "type": "bytes32[]"
        }
      ],
      "name": "presaleMint",
      "outputs": [],
      "stateMutability": "payable",
      "type": "function",
      "payable": true
    },
    {
      "inputs": [
        {
          "internalType": "uint256",
          "name": "numberOfTokens",
          "type": "uint256"
        }
      ],
      "name": "devMint",
      "outputs": [],
      "stateMutability": "nonpayable",
      "type": "function"
    },
    {
      "inputs": [
        {
          "internalType": "string",
          "name": "URI",
          "type": "string"
        }
      ],
      "name": "setBaseURI",
      "outputs": [],
      "stateMutability": "nonpayable",
      "type": "function"
    },
    {
      "inputs": [
        {
          "internalType": "bool",
          "name": "revealed",
          "type": "bool"
        },
        {
          "internalType": "string",
          "name": "_baseURI",
          "type": "string"
        }
      ],
      "name": "reveal",
      "outputs": [],
      "stateMutability": "nonpayable",
      "type": "function"
    },
    {
      "inputs": [],
      "name": "withdraw",
      "outputs": [],
      "stateMutability": "nonpayable",
      "type": "function"
    },
    {
      "inputs": [
        {
          "internalType": "uint256",
          "name": "tokenId",
          "type": "uint256"
        }
      ],
      "name": "tokenURI",
      "outputs": [
        {
          "internalType": "string",
          "name": "",
          "type": "string"
        }
      ],
      "stateMutability": "view",
      "type": "function",
      "constant": true
    },
    {
      "inputs": [
        {
          "internalType": "address",
          "name": "owner",
          "type": "address"
        }
      ],
      "name": "tokensOfOwner",
      "outputs": [
        {
          "internalType": "uint256[]",
          "name": "",
          "type": "uint256[]"
        }
      ],
      "stateMutability": "view",
      "type": "function",
      "constant": true
    },
    {
      "inputs": [
        {
          "internalType": "address",
          "name": "owner",
          "type": "address"
        }
      ],
      "name": "numberMinted",
      "outputs": [
        {
          "internalType": "uint256",
          "name": "",
          "type": "uint256"
        }
      ],
      "stateMutability": "view",
      "type": "function",
      "constant": true
    },
    {
      "inputs": [
        {
          "internalType": "bytes32",
          "name": "_presaleRoot",
          "type": "bytes32"
        }
      ],
      "name": "setPreSaleRoot",
      "outputs": [],
      "stateMutability": "nonpayable",
      "type": "function"
    },
    {
      "inputs": [
        {
          "internalType": "address",
          "name": "_signer",
          "type": "address"
        }
      ],
      "name": "setSigner",
      "outputs": [],
      "stateMutability": "nonpayable",
      "type": "function"
    },
    {
      "inputs": [
        {
          "internalType": "uint256",
          "name": "_dutchAuctionStartTime",
          "type": "uint256"
        },
        {
          "internalType": "uint256",
          "name": "_presaleStartTime",
          "type": "uint256"
        },
        {
          "internalType": "uint256",
          "name": "_publicSaleStartTime",
          "type": "uint256"
        },
        {
          "internalType": "uint256",
          "name": "_refundEndTime",
          "type": "uint256"
        }
      ],
      "name": "setTimestamps",
      "outputs": [],
      "stateMutability": "nonpayable",
      "type": "function"
    },
    {
      "inputs": [],
      "name": "isPublicSaleActive",
      "outputs": [
        {
          "internalType": "bool",
          "name": "",
          "type": "bool"
        }
      ],
      "stateMutability": "view",
      "type": "function",
      "constant": true
    },
    {
      "inputs": [],
      "name": "isPresaleActive",
      "outputs": [
        {
          "internalType": "bool",
          "name": "",
          "type": "bool"
        }
      ],
      "stateMutability": "view",
      "type": "function",
      "constant": true
    },
    {
      "inputs": [],
      "name": "isDutchAuctionActive",
      "outputs": [
        {
          "internalType": "bool",
          "name": "",
          "type": "bool"
        }
      ],
      "stateMutability": "view",
      "type": "function",
      "constant": true
    },
    {
      "inputs": [
        {
          "internalType": "uint256",
          "name": "numberOfTokens",
          "type": "uint256"
        }
      ],
      "name": "dutchMint",
      "outputs": [],
      "stateMutability": "payable",
      "type": "function",
      "payable": true
    },
    {
      "inputs": [],
      "name": "currentDAPrice",
      "outputs": [
        {
          "internalType": "uint256",
          "name": "",
          "type": "uint256"
        }
      ],
      "stateMutability": "view",
      "type": "function",
      "constant": true
    },
    {
      "inputs": [],
      "name": "dutchRefund",
      "outputs": [],
      "stateMutability": "nonpayable",
      "type": "function"
    },
    {
      "inputs": [],
      "name": "refundAmount",
      "outputs": [
        {
          "internalType": "uint256",
          "name": "",
          "type": "uint256"
        }
      ],
      "stateMutability": "view",
      "type": "function",
      "constant": true
    }
  ],
  "bytecode": "0x600080805560078190556008805460ff60a01b1916905560e0604081905260c08290526200003191600991906200034f565b50670429d069189e000060135560006014553480156200005057600080fd5b506040516200414b3803806200414b8339810160408190526200007391620003f5565b604051806040016040528060048152602001632b32b93160e11b815250604051806040016040528060048152602001632b22a92160e11b815250610190611d4c60008111620001205760405162461bcd60e51b815260206004820152602e60248201527f455243373231413a20636f6c6c656374696f6e206d757374206861766520612060448201526d6e6f6e7a65726f20737570706c7960901b60648201526084015b60405180910390fd5b60008211620001825760405162461bcd60e51b815260206004820152602760248201527f455243373231413a206d61782062617463682073697a65206d757374206265206044820152666e6f6e7a65726f60c81b606482015260840162000117565b8351620001979060019060208701906200034f565b508251620001ad9060029060208601906200034f565b5060a09190915260805250620001c5905033620002fd565b82620001d4612a30866200042c565b10620002235760405162461bcd60e51b815260206004820152601c60248201527f44415f475245415445525f5448414e5f50524553414c455f54494d4500000000604482015260640162000117565b818310620002825760405162461bcd60e51b815260206004820152602560248201527f50524553414c455f475245415445525f5448414e5f5055424c49435f53414c456044820152645f54494d4560d81b606482015260840162000117565b601084905562000295612a30856200042c565b60118190558111620002ea5760405162461bcd60e51b815260206004820152601a60248201527f524546554e445f475245415445525f5448414e5f44415f454e44000000000000604482015260640162000117565b600c92909255600b55601255506200048f565b600880546001600160a01b038381166001600160a01b0319831681179093556040519116919082907f8be0079c531659141344cd1fd0a4f28419497f9722a3daafe3b4186f6b6457e090600090a35050565b8280546200035d9062000453565b90600052602060002090601f016020900481019282620003815760008555620003cc565b82601f106200039c57805160ff1916838001178555620003cc565b82800160010185558215620003cc579182015b82811115620003cc578251825591602001919060010190620003af565b50620003da929150620003de565b5090565b5b80821115620003da5760008155600101620003df565b600080600080608085870312156200040c57600080fd5b505082516020840151604085015160609095015191969095509092509050565b600082198211156200044e57634e487b7160e01b600052601160045260246000fd5b500190565b600181811c908216806200046857607f821691505b6020821081036200048957634e487b7160e01b600052602260045260246000fd5b50919050565b60805160a051613c8b620004c0600039600081816126d2015281816126fc0152612be8015260005050613c8b6000f3fe6080604052600436106103505760003560e01c806395d89b41116101c6578063c9beca7e116100f7578063e985e9c511610095578063f2fde38b1161006f578063f2fde38b14610983578063f5ebec80146109a3578063f733fcec146109b8578063fe042d49146109ce57600080fd5b8063e985e9c514610911578063edc0c72c1461095a578063f20e54421461096d57600080fd5b8063dc33e681116100d1578063dc33e681146108a1578063de97536b146108c1578063df4d21cb146108e9578063e095cb37146108fc57600080fd5b8063c9beca7e14610845578063d39c4de71461085b578063d7224ba01461088b57600080fd5b8063b08da34211610164578063b88d4fde1161013e578063b88d4fde146107d9578063c3fb29af146107f9578063c68e98981461080f578063c87b56dd1461082557600080fd5b8063b08da34214610737578063b3754e861461075f578063b484eff71461077257600080fd5b8063a22cb465116101a0578063a22cb465146106d6578063a82524b2146106f6578063aa66797b1461070c578063ad33513f1461072257600080fd5b806395d89b411461068c5780639b7c9ff5146106a1578063a101ff6d146106b657600080fd5b80634f6ccce7116102a057806370a082311161023e5780638462151c116102185780638462151c1461060c5780638da5cb5b146106395780638ed5d2c3146106575780638f5976691461067757600080fd5b806370a08231146105c1578063715018a6146105e157806373fddd16146105f657600080fd5b806360d938dc1161027a57806360d938dc146105565780636352211e1461056b5780636bb7b1d91461058b5780636c19e783146105a157600080fd5b80634f6ccce71461050157806355f804b3146105215780635938849a1461054157600080fd5b80631e84c4131161030d57806332cb6b0c116102e757806332cb6b0c14610496578063375a069a146104ac5780633ccfd60b146104cc57806342842e0e146104e157600080fd5b80631e84c4131461043e57806323b872dd146104565780632f745c591461047657600080fd5b806301ffc9a714610355578063027752401461038a57806306fdde03146103ad578063081812fc146103cf578063095ea7b31461040757806318160ddd14610429575b600080fd5b34801561036157600080fd5b5061037561037036600461327d565b6109ee565b60405190151581526020015b60405180910390f35b34801561039657600080fd5b5061039f600581565b604051908152602001610381565b3480156103b957600080fd5b506103c2610a5b565b60405161038191906132f9565b3480156103db57600080fd5b506103ef6103ea36600461330c565b610aed565b6040516001600160a01b039091168152602001610381565b34801561041357600080fd5b5061042761042236600461333c565b610b7d565b005b34801561043557600080fd5b5060005461039f565b34801561044a57600080fd5b50600b54421015610375565b34801561046257600080fd5b50610427610471366004613366565b610c94565b34801561048257600080fd5b5061039f61049136600461333c565b610c9f565b3480156104a257600080fd5b5061039f611d4c81565b3480156104b857600080fd5b506104276104c736600461330c565b610e0a565b3480156104d857600080fd5b50610427610ed9565b3480156104ed57600080fd5b506104276104fc366004613366565b611045565b34801561050d57600080fd5b5061039f61051c36600461330c565b611060565b34801561052d57600080fd5b5061042761053c3660046133e3565b6110c2565b34801561054d57600080fd5b506104276110f8565b34801561056257600080fd5b5061037561135e565b34801561057757600080fd5b506103ef61058636600461330c565b611378565b34801561059757600080fd5b5061039f600b5481565b3480156105ad57600080fd5b506104276105bc366004613424565b61138a565b3480156105cd57600080fd5b5061039f6105dc366004613424565b6113d6565b3480156105ed57600080fd5b50610427611467565b34801561060257600080fd5b5061039f60125481565b34801561061857600080fd5b5061062c610627366004613424565b61149d565b604051610381919061343f565b34801561064557600080fd5b506008546001600160a01b03166103ef565b34801561066357600080fd5b50610427610672366004613483565b61153e565b34801561068357600080fd5b5061039f600381565b34801561069857600080fd5b506103c2611692565b3480156106ad57600080fd5b5061039f6116a1565b3480156106c257600080fd5b506104276106d13660046134c5565b61171e565b3480156106e257600080fd5b506104276106f1366004613517565b611771565b34801561070257600080fd5b5061039f600c5481565b34801561071857600080fd5b5061039f61019081565b34801561072e57600080fd5b5061039f611835565b34801561074357600080fd5b506103ef737badc616fb80d3937677f9c2a4bf837dea2af8ec81565b61042761076d3660046135ff565b61186f565b34801561077e57600080fd5b506107b761078d366004613424565b60156020526000908152604090208054600182015460028301546003909301549192909160ff1684565b6040805194855260208501939093529183015215156060820152608001610381565b3480156107e557600080fd5b506104276107f4366004613660565b611b6f565b34801561080557600080fd5b5061039f60105481565b34801561081b57600080fd5b5061039f60145481565b34801561083157600080fd5b506103c261084036600461330c565b611ba2565b34801561085157600080fd5b5061039f60115481565b34801561086757600080fd5b5061037561087636600461330c565b600f6020526000908152604090205460ff1681565b34801561089757600080fd5b5061039f60075481565b3480156108ad57600080fd5b5061039f6108bc366004613424565b611c00565b3480156108cd57600080fd5b506103ef73188a3c584f0de9ee0eabe04316a94a41f0867c0c81565b6104276108f736600461330c565b611c0b565b34801561090857600080fd5b50610375611ed3565b34801561091d57600080fd5b5061037561092c3660046136c7565b6001600160a01b03918216600090815260066020908152604080832093909416825291909152205460ff1690565b6104276109683660046136f1565b611eeb565b34801561097957600080fd5b5061039f60135481565b34801561098f57600080fd5b5061042761099e366004613424565b61218d565b3480156109af57600080fd5b5061039f600181565b3480156109c457600080fd5b5061039f6113ec81565b3480156109da57600080fd5b506104276109e936600461330c565b612225565b60006001600160e01b031982166380ac58cd60e01b1480610a1f57506001600160e01b03198216635b5e139f60e01b145b80610a3a57506001600160e01b0319821663780e9d6360e01b145b80610a5557506301ffc9a760e01b6001600160e01b03198316145b92915050565b606060018054610a6a90613796565b80601f0160208091040260200160405190810160405280929190818152602001828054610a9690613796565b8015610ae35780601f10610ab857610100808354040283529160200191610ae3565b820191906000526020600020905b815481529060010190602001808311610ac657829003601f168201915b5050505050905090565b6000610afa826000541190565b610b615760405162461bcd60e51b815260206004820152602d60248201527f455243373231413a20617070726f76656420717565727920666f72206e6f6e6560448201526c3c34b9ba32b73a103a37b5b2b760991b60648201526084015b60405180910390fd5b506000908152600560205260409020546001600160a01b031690565b6000610b8882611378565b9050806001600160a01b0316836001600160a01b031603610bf65760405162461bcd60e51b815260206004820152602260248201527f455243373231413a20617070726f76616c20746f2063757272656e74206f776e60448201526132b960f11b6064820152608401610b58565b336001600160a01b0382161480610c125750610c12813361092c565b610c845760405162461bcd60e51b815260206004820152603960248201527f455243373231413a20617070726f76652063616c6c6572206973206e6f74206f60448201527f776e6572206e6f7220617070726f76656420666f7220616c6c000000000000006064820152608401610b58565b610c8f838383612254565b505050565b610c8f8383836122b0565b6000610caa836113d6565b8210610d035760405162461bcd60e51b815260206004820152602260248201527f455243373231413a206f776e657220696e646578206f7574206f6620626f756e604482015261647360f01b6064820152608401610b58565b600080549080805b83811015610daa576000818152600360209081526040918290208251808401909352546001600160a01b038116808452600160a01b9091046001600160401b03169183019190915215610d5d57805192505b876001600160a01b0316836001600160a01b031603610d9757868403610d8957509350610a5592505050565b83610d93816137e6565b9450505b5080610da2816137e6565b915050610d0b565b5060405162461bcd60e51b815260206004820152602e60248201527f455243373231413a20756e61626c6520746f2067657420746f6b656e206f662060448201526d0deeedccae440c4f240d2dcc8caf60931b6064820152608401610b58565b6008546001600160a01b03163314610e345760405162461bcd60e51b8152600401610b58906137ff565b611d4c610e4060005490565b610e4a9083613834565b1115610e685760405162461bcd60e51b8152600401610b589061384c565b610190610e7433611c00565b610e7e9083613834565b1115610ecc5760405162461bcd60e51b815260206004820152601960248201527f4e4f545f454e4f5547485f524553455256455f535550504c59000000000000006044820152606401610b58565b610ed63382612636565b50565b6008546001600160a01b03163314610f035760405162461bcd60e51b8152600401610b58906137ff565b601254421015610f605760405162461bcd60e51b815260206004820152602260248201527f4d5553545f574149545f464f525f524546554e445f504552494f445f544f5f45604482015261139160f21b6064820152608401610b58565b4780610fa75760405162461bcd60e51b81526020600482015260166024820152754e6f2062616c616e636520746f20776974686472617760501b6044820152606401610b58565b73188a3c584f0de9ee0eabe04316a94a41f0867c0c6108fc612710610fce846102bc613877565b610fd891906138ac565b6040518115909202916000818181858888f19350505050158015611000573d6000803e3d6000fd5b50604051737badc616fb80d3937677f9c2a4bf837dea2af8ec904780156108fc02916000818181858888f19350505050158015611041573d6000803e3d6000fd5b5050565b610c8f83838360405180602001604052806000815250611b6f565b6000805482106110be5760405162461bcd60e51b815260206004820152602360248201527f455243373231413a20676c6f62616c20696e646578206f7574206f6620626f756044820152626e647360e81b6064820152608401610b58565b5090565b6008546001600160a01b031633146110ec5760405162461bcd60e51b8152600401610b58906137ff565b610c8f600983836131d7565b3360009081526015602052604090206003015460ff16156111545760405162461bcd60e51b81526020600482015260166024820152751053149150511657d0d3105253515117d4915195539160521b6044820152606401610b58565b336000908152601560205260409020600101546111a75760405162461bcd60e51b81526020600482015260116024820152704e4f5f44555443485f505552434841534560781b6044820152606401610b58565b6011544210156111f95760405162461bcd60e51b815260206004820152601760248201527f44555443485f41554354494f4e5f4e4f545f454e4445440000000000000000006044820152606401610b58565b600c5442101561124b5760405162461bcd60e51b815260206004820152601960248201527f524546554e445f504552494f445f4e4f545f53544152544544000000000000006044820152606401610b58565b60125442106112955760405162461bcd60e51b815260206004820152601660248201527514915195539117d411549253d117d192539254d2115160521b6044820152606401610b58565b336000908152601560205260408120600101546013546112b59190613877565b336000908152601560205260409020546112cf91906138c0565b9050600081116113185760405162461bcd60e51b81526020600482015260146024820152731393d7d491519553911050931157d05353d5539560621b6044820152606401610b58565b33600081815260156020526040808220600301805460ff191660011790555183156108fc0291849190818181858888f19350505050158015611041573d6000803e3d6000fd5b6000600c5442101580156113735750600b5442105b905090565b600061138382612650565b5192915050565b6008546001600160a01b031633146113b45760405162461bcd60e51b8152600401610b58906137ff565b600e80546001600160a01b0319166001600160a01b0392909216919091179055565b60006001600160a01b0382166114425760405162461bcd60e51b815260206004820152602b60248201527f455243373231413a2062616c616e636520717565727920666f7220746865207a60448201526a65726f206164647265737360a81b6064820152608401610b58565b506001600160a01b03166000908152600460205260409020546001600160801b031690565b6008546001600160a01b031633146114915760405162461bcd60e51b8152600401610b58906137ff565b61149b60006127f9565b565b606060006114aa836113d6565b90506000816001600160401b038111156114c6576114c661354a565b6040519080825280602002602001820160405280156114ef578160200160208202803683370190505b50905060005b82811015611536576115078582610c9f565b828281518110611519576115196138d7565b60209081029190910101528061152e816137e6565b9150506114f5565b509392505050565b6008546001600160a01b031633146115685760405162461bcd60e51b8152600401610b58906137ff565b82611575612a3086613834565b106115c25760405162461bcd60e51b815260206004820152601c60248201527f44415f475245415445525f5448414e5f50524553414c455f54494d45000000006044820152606401610b58565b81831061161f5760405162461bcd60e51b815260206004820152602560248201527f50524553414c455f475245415445525f5448414e5f5055424c49435f53414c456044820152645f54494d4560d81b6064820152608401610b58565b6010849055611630612a3085613834565b601181905581116116835760405162461bcd60e51b815260206004820152601a60248201527f524546554e445f475245415445525f5448414e5f44415f454e440000000000006044820152606401610b58565b600c92909255600b5560125550565b606060028054610a6a90613796565b60004260105411156116ba5750670429d069189e000090565b6000601054426116ca91906138c0565b905060006116da610708836138ac565b9050600581106116f45767016345785d8a00009250505090565b61170581668e1bc9bf040000613877565b61171790670429d069189e00006138c0565b9250505090565b6008546001600160a01b031633146117485760405162461bcd60e51b8152600401610b58906137ff565b6008805460ff60a01b1916600160a01b8515150217905561176b600983836131d7565b50505050565b336001600160a01b038316036117c95760405162461bcd60e51b815260206004820152601a60248201527f455243373231413a20617070726f766520746f2063616c6c65720000000000006044820152606401610b58565b3360008181526006602090815260408083206001600160a01b03871680855290835292819020805460ff191686151590811790915590519081529192917f17307eab39ab6107e8899845ad3d59bd9653f200f220920489ca2b5937696c31910160405180910390a35050565b336000908152601560205260408120600101546013546118559190613877565b3360009081526015602052604090205461137391906138c0565b336000908152600d602052604090205460019042116118a05760405162461bcd60e51b8152600401610b58906138ed565b3233146118bf5760405162461bcd60e51b8152600401610b5890613924565b8060ff166001036118ec57600b544210156118ec5760405162461bcd60e51b8152600401610b589061395b565b8060ff1660020361191b576118ff61135e565b61191b5760405162461bcd60e51b8152600401610b5890613992565b8060ff1660030361194a5761192e611ed3565b61194a5760405162461bcd60e51b8152600401610b58906139c9565b6040516bffffffffffffffffffffffff193360601b1660208201526001600160c01b031960c085901b166034820152603c8101859052600090605c016040516020818303038152906040528051906020012090506119a8838261284b565b6119f45760405162461bcd60e51b815260206004820152601960248201527f434f4e54524143545f4d494e545f4e4f545f414c4c4f574544000000000000006044820152606401610b58565b836001600160401b0316421115611a415760405162461bcd60e51b8152602060048201526011602482015270455850495245445f5349474e415455524560781b6044820152606401610b58565b6000818152600f602052604090205460ff1615611aa05760405162461bcd60e51b815260206004820152601d60248201527f5349474e41545552455f4c4f4f50494e475f4e4f545f414c4c4f5745440000006044820152606401610b58565b611d4c611aac60005490565b611ab69087613834565b1115611ad45760405162461bcd60e51b8152600401610b589061384c565b600585611ae033611c00565b611aea9190613834565b1115611b085760405162461bcd60e51b8152600401610b5890613a00565b84601354611b169190613877565b3414611b345760405162461bcd60e51b8152600401610b5890613a2b565b336000818152600d60209081526040808320429055848352600f9091529020805460ff19166001179055611b689086612636565b5050505050565b611b7a8484846122b0565b611b8684848484612875565b61176b5760405162461bcd60e51b8152600401610b5890613a53565b600854606090600160a01b900460ff1615611be9576009611bc283612977565b604051602001611bd3929190613b3f565b6040516020818303038152906040529050919050565b6009604051602001611bd39190613b64565b919050565b6000610a5582612a77565b336000908152600d60205260409020546003904211611c3c5760405162461bcd60e51b8152600401610b58906138ed565b323314611c5b5760405162461bcd60e51b8152600401610b5890613924565b8060ff16600103611c8857600b54421015611c885760405162461bcd60e51b8152600401610b589061395b565b8060ff16600203611cb757611c9b61135e565b611cb75760405162461bcd60e51b8152600401610b5890613992565b8060ff16600303611ce657611cca611ed3565b611ce65760405162461bcd60e51b8152600401610b58906139c9565b611d4c611cf260005490565b611cfc9084613834565b1115611d1a5760405162461bcd60e51b8152600401610b589061384c565b6113ec60145483611d2b9190613834565b1115611d795760405162461bcd60e51b815260206004820152601760248201527f4e4f545f454e4f5547485f44555443485f535550504c590000000000000000006044820152606401610b58565b600582611d8533611c00565b611d8f9190613834565b1115611dad5760405162461bcd60e51b8152600401610b5890613a00565b33600090815260156020526040902060010154600390611dce908490613834565b1115611e1c5760405162461bcd60e51b815260206004820152601760248201527f4558434545445f44555443485f4d494e545f4c494d49540000000000000000006044820152606401610b58565b6000611e266116a1565b9050611e328382613877565b341015611e515760405162461bcd60e51b8152600401610b5890613a2b565b336000908152600d60209081526040808320429055601590915281208054349290611e7d908490613834565b90915550503360009081526015602052604081206001018054859290611ea4908490613834565b9091555050601381905560148054849190600090611ec3908490613834565b90915550610c8f90503384612636565b60006010544210158015611373575050601154421090565b336000908152600d60205260409020546002904211611f1c5760405162461bcd60e51b8152600401610b58906138ed565b323314611f3b5760405162461bcd60e51b8152600401610b5890613924565b8060ff16600103611f6857600b54421015611f685760405162461bcd60e51b8152600401610b589061395b565b8060ff16600203611f9757611f7b61135e565b611f975760405162461bcd60e51b8152600401610b5890613992565b8060ff16600303611fc657611faa611ed3565b611fc65760405162461bcd60e51b8152600401610b58906139c9565b6040516bffffffffffffffffffffffff193360601b16602082015260009060340160405160208183030381529060405280519060200120905061200c83600a5483612b15565b6120485760405162461bcd60e51b815260206004820152600d60248201526c141493d3d197d2539590531251609a1b6044820152606401610b58565b600561205333611c00565b61205e906001613834565b111561207c5760405162461bcd60e51b8152600401610b5890613a00565b3360009081526015602052604090206002015460019061209c9082613834565b11156120ea5760405162461bcd60e51b815260206004820152601960248201527f4558434545445f50524553414c455f4d494e545f4c494d4954000000000000006044820152606401610b58565b611d4c6120f660005490565b612101906001613834565b111561211f5760405162461bcd60e51b8152600401610b589061384c565b600260135461212e91906138ac565b341461214c5760405162461bcd60e51b8152600401610b5890613a2b565b336000908152600d602090815260408083204290556015909152812060020180546001929061217c908490613834565b90915550610c8f9050336001612636565b6008546001600160a01b031633146121b75760405162461bcd60e51b8152600401610b58906137ff565b6001600160a01b03811661221c5760405162461bcd60e51b815260206004820152602660248201527f4f776e61626c653a206e6577206f776e657220697320746865207a65726f206160448201526564647265737360d01b6064820152608401610b58565b610ed6816127f9565b6008546001600160a01b0316331461224f5760405162461bcd60e51b8152600401610b58906137ff565b600a55565b60008281526005602052604080822080546001600160a01b0319166001600160a01b0387811691821790925591518593918516917f8c5be1e5ebec7d5bd14f71427d1e84f3dd0314c0f7b2291e5b200ac8c7c3b92591a4505050565b60006122bb82612650565b80519091506000906001600160a01b0316336001600160a01b031614806122f25750336122e784610aed565b6001600160a01b0316145b8061230457508151612304903361092c565b90508061236e5760405162461bcd60e51b815260206004820152603260248201527f455243373231413a207472616e736665722063616c6c6572206973206e6f74206044820152711bdddb995c881b9bdc88185c1c1c9bdd995960721b6064820152608401610b58565b846001600160a01b031682600001516001600160a01b0316146123e25760405162461bcd60e51b815260206004820152602660248201527f455243373231413a207472616e736665722066726f6d20696e636f72726563746044820152651037bbb732b960d11b6064820152608401610b58565b6001600160a01b0384166124465760405162461bcd60e51b815260206004820152602560248201527f455243373231413a207472616e7366657220746f20746865207a65726f206164604482015264647265737360d81b6064820152608401610b58565b6124566000848460000151612254565b6001600160a01b03851660009081526004602052604081208054600192906124889084906001600160801b0316613b70565b82546101009290920a6001600160801b038181021990931691831602179091556001600160a01b038616600090815260046020526040812080546001945090926124d491859116613b98565b82546001600160801b039182166101009390930a9283029190920219909116179055506040805180820182526001600160a01b0380871682526001600160401b03428116602080850191825260008981526003909152948520935184549151909216600160a01b026001600160e01b0319909116919092161717905561255b846001613834565b6000818152600360205260409020549091506001600160a01b03166125ec57612585816000541190565b156125ec5760408051808201825284516001600160a01b0390811682526020808701516001600160401b039081168285019081526000878152600390935294909120925183549451909116600160a01b026001600160e01b03199094169116179190911790555b83856001600160a01b0316876001600160a01b03167fddf252ad1be2c89b69c2b068fc378daa952ba7f163c4a11628f55a4df523b3ef60405160405180910390a45b505050505050565b611041828260405180602001604052806000815250612b2b565b604080518082019091526000808252602082015261266f826000541190565b6126ce5760405162461bcd60e51b815260206004820152602a60248201527f455243373231413a206f776e657220717565727920666f72206e6f6e657869736044820152693a32b73a103a37b5b2b760b11b6064820152608401610b58565b60007f0000000000000000000000000000000000000000000000000000000000000000831061272f576127217f0000000000000000000000000000000000000000000000000000000000000000846138c0565b61272c906001613834565b90505b825b818110612798576000818152600360209081526040918290208251808401909352546001600160a01b038116808452600160a01b9091046001600160401b0316918301919091521561278557949350505050565b508061279081613bba565b915050612731565b5060405162461bcd60e51b815260206004820152602f60248201527f455243373231413a20756e61626c6520746f2064657465726d696e652074686560448201526e1037bbb732b91037b3103a37b5b2b760891b6064820152608401610b58565b600880546001600160a01b038381166001600160a01b0319831681179093556040519116919082907f8be0079c531659141344cd1fd0a4f28419497f9722a3daafe3b4186f6b6457e090600090a35050565b600e546000906001600160a01b03166128648385612e05565b6001600160a01b0316149392505050565b60006001600160a01b0384163b1561296b57604051630a85bd0160e11b81526001600160a01b0385169063150b7a02906128b9903390899088908890600401613bd1565b6020604051808303816000875af19250505080156128f4575060408051601f3d908101601f191682019092526128f191810190613c0e565b60015b612951573d808015612922576040519150601f19603f3d011682016040523d82523d6000602084013e612927565b606091505b5080516000036129495760405162461bcd60e51b8152600401610b5890613a53565b805181602001fd5b6001600160e01b031916630a85bd0160e11b14905061296f565b5060015b949350505050565b60608160000361299e5750506040805180820190915260018152600360fc1b602082015290565b8160005b81156129c857806129b2816137e6565b91506129c19050600a836138ac565b91506129a2565b6000816001600160401b038111156129e2576129e261354a565b6040519080825280601f01601f191660200182016040528015612a0c576020820181803683370190505b5090505b841561296f57612a216001836138c0565b9150612a2e600a86613c2b565b612a39906030613834565b60f81b818381518110612a4e57612a4e6138d7565b60200101906001600160f81b031916908160001a905350612a70600a866138ac565b9450612a10565b60006001600160a01b038216612ae95760405162461bcd60e51b815260206004820152603160248201527f455243373231413a206e756d626572206d696e74656420717565727920666f7260448201527020746865207a65726f206164647265737360781b6064820152608401610b58565b506001600160a01b0316600090815260046020526040902054600160801b90046001600160801b031690565b600082612b228584612e21565b14949350505050565b6000546001600160a01b038416612b8e5760405162461bcd60e51b815260206004820152602160248201527f455243373231413a206d696e7420746f20746865207a65726f206164647265736044820152607360f81b6064820152608401610b58565b612b99816000541190565b15612be65760405162461bcd60e51b815260206004820152601d60248201527f455243373231413a20746f6b656e20616c7265616479206d696e7465640000006044820152606401610b58565b7f0000000000000000000000000000000000000000000000000000000000000000831115612c615760405162461bcd60e51b815260206004820152602260248201527f455243373231413a207175616e7469747920746f206d696e7420746f6f2068696044820152610ced60f31b6064820152608401610b58565b6001600160a01b0384166000908152600460209081526040918290208251808401845290546001600160801b038082168352600160801b9091041691810191909152815180830190925280519091908190612cbd908790613b98565b6001600160801b03168152602001858360200151612cdb9190613b98565b6001600160801b039081169091526001600160a01b0380881660008181526004602090815260408083208751978301518716600160801b029790961696909617909455845180860186529182526001600160401b034281168386019081528883526003909552948120915182549451909516600160a01b026001600160e01b031990941694909216939093179190911790915582905b85811015612dfa5760405182906001600160a01b038916906000907fddf252ad1be2c89b69c2b068fc378daa952ba7f163c4a11628f55a4df523b3ef908290a4612dbe6000888488612875565b612dda5760405162461bcd60e51b8152600401610b5890613a53565b81612de4816137e6565b9250508080612df2906137e6565b915050612d71565b50600081905561262e565b6000806000612e148585612e8d565b9150915061153681612efb565b600081815b8451811015611536576000858281518110612e4357612e436138d7565b60200260200101519050808311612e695760008381526020829052604090209250612e7a565b600081815260208490526040902092505b5080612e85816137e6565b915050612e26565b6000808251604103612ec35760208301516040840151606085015160001a612eb7878285856130b1565b94509450505050612ef4565b8251604003612eec5760208301516040840151612ee186838361319e565b935093505050612ef4565b506000905060025b9250929050565b6000816004811115612f0f57612f0f613c3f565b03612f175750565b6001816004811115612f2b57612f2b613c3f565b03612f785760405162461bcd60e51b815260206004820152601860248201527f45434453413a20696e76616c6964207369676e617475726500000000000000006044820152606401610b58565b6002816004811115612f8c57612f8c613c3f565b03612fd95760405162461bcd60e51b815260206004820152601f60248201527f45434453413a20696e76616c6964207369676e6174757265206c656e677468006044820152606401610b58565b6003816004811115612fed57612fed613c3f565b036130455760405162461bcd60e51b815260206004820152602260248201527f45434453413a20696e76616c6964207369676e6174757265202773272076616c604482015261756560f01b6064820152608401610b58565b600481600481111561305957613059613c3f565b03610ed65760405162461bcd60e51b815260206004820152602260248201527f45434453413a20696e76616c6964207369676e6174757265202776272076616c604482015261756560f01b6064820152608401610b58565b6000807f7fffffffffffffffffffffffffffffff5d576e7357a4501ddfe92f46681b20a08311156130e85750600090506003613195565b8460ff16601b1415801561310057508460ff16601c14155b156131115750600090506004613195565b6040805160008082526020820180845289905260ff881692820192909252606081018690526080810185905260019060a0016020604051602081039080840390855afa158015613165573d6000803e3d6000fd5b5050604051601f1901519150506001600160a01b03811661318e57600060019250925050613195565b9150600090505b94509492505050565b6000806001600160ff1b038316816131bb60ff86901c601b613834565b90506131c9878288856130b1565b935093505050935093915050565b8280546131e390613796565b90600052602060002090601f016020900481019282613205576000855561324b565b82601f1061321e5782800160ff1982351617855561324b565b8280016001018555821561324b579182015b8281111561324b578235825591602001919060010190613230565b506110be9291505b808211156110be5760008155600101613253565b6001600160e01b031981168114610ed657600080fd5b60006020828403121561328f57600080fd5b813561329a81613267565b9392505050565b60005b838110156132bc5781810151838201526020016132a4565b8381111561176b5750506000910152565b600081518084526132e58160208601602086016132a1565b601f01601f19169290920160200192915050565b60208152600061329a60208301846132cd565b60006020828403121561331e57600080fd5b5035919050565b80356001600160a01b0381168114611bfb57600080fd5b6000806040838503121561334f57600080fd5b61335883613325565b946020939093013593505050565b60008060006060848603121561337b57600080fd5b61338484613325565b925061339260208501613325565b9150604084013590509250925092565b60008083601f8401126133b457600080fd5b5081356001600160401b038111156133cb57600080fd5b602083019150836020828501011115612ef457600080fd5b600080602083850312156133f657600080fd5b82356001600160401b0381111561340c57600080fd5b613418858286016133a2565b90969095509350505050565b60006020828403121561343657600080fd5b61329a82613325565b6020808252825182820181905260009190848201906040850190845b818110156134775783518352928401929184019160010161345b565b50909695505050505050565b6000806000806080858703121561349957600080fd5b5050823594602084013594506040840135936060013592509050565b80358015158114611bfb57600080fd5b6000806000604084860312156134da57600080fd5b6134e3846134b5565b925060208401356001600160401b038111156134fe57600080fd5b61350a868287016133a2565b9497909650939450505050565b6000806040838503121561352a57600080fd5b61353383613325565b9150613541602084016134b5565b90509250929050565b634e487b7160e01b600052604160045260246000fd5b604051601f8201601f191681016001600160401b03811182821017156135885761358861354a565b604052919050565b600082601f8301126135a157600080fd5b81356001600160401b038111156135ba576135ba61354a565b6135cd601f8201601f1916602001613560565b8181528460208386010111156135e257600080fd5b816020850160208301376000918101602001919091529392505050565b60008060006060848603121561361457600080fd5b8335925060208401356001600160401b03808216821461363357600080fd5b9092506040850135908082111561364957600080fd5b5061365686828701613590565b9150509250925092565b6000806000806080858703121561367657600080fd5b61367f85613325565b935061368d60208601613325565b92506040850135915060608501356001600160401b038111156136af57600080fd5b6136bb87828801613590565b91505092959194509250565b600080604083850312156136da57600080fd5b6136e383613325565b915061354160208401613325565b6000602080838503121561370457600080fd5b82356001600160401b038082111561371b57600080fd5b818501915085601f83011261372f57600080fd5b8135818111156137415761374161354a565b8060051b9150613752848301613560565b818152918301840191848101908884111561376c57600080fd5b938501935b8385101561378a57843582529385019390850190613771565b98975050505050505050565b600181811c908216806137aa57607f821691505b6020821081036137ca57634e487b7160e01b600052602260045260246000fd5b50919050565b634e487b7160e01b600052601160045260246000fd5b6000600182016137f8576137f86137d0565b5060010190565b6020808252818101527f4f776e61626c653a2063616c6c6572206973206e6f7420746865206f776e6572604082015260600190565b60008219821115613847576138476137d0565b500190565b6020808252601190820152704e4f545f454e4f5547485f535550504c5960781b604082015260600190565b6000816000190483118215151615613891576138916137d0565b500290565b634e487b7160e01b600052601260045260246000fd5b6000826138bb576138bb613896565b500490565b6000828210156138d2576138d26137d0565b500390565b634e487b7160e01b600052603260045260246000fd5b6020808252601d908201527f43414e4e4f545f4d494e545f4f4e5f5448455f53414d455f424c4f434b000000604082015260600190565b6020808252601d908201527f434f4e5452414354535f4e4f545f414c4c4f5745445f544f5f4d494e54000000604082015260600190565b6020808252601d908201527f5055424c49435f4d494e545f49535f4e4f545f5945545f414354495645000000604082015260600190565b6020808252601e908201527f50524553414c455f4d494e545f49535f4e4f545f5945545f4143544956450000604082015260600190565b6020808252601f908201527f44555443485f41554354494f4e5f49535f4e4f545f5945545f41435449564500604082015260600190565b602080825260119082015270115610d1515117d352539517d312535255607a1b604082015260600190565b6020808252600e908201526d1253959053125117d05353d5539560921b604082015260600190565b60208082526033908201527f455243373231413a207472616e7366657220746f206e6f6e204552433732315260408201527232b1b2b4bb32b91034b6b83632b6b2b73a32b960691b606082015260800190565b8054600090600181811c9080831680613ac057607f831692505b60208084108203613ae157634e487b7160e01b600052602260045260246000fd5b818015613af55760018114613b0657613b33565b60ff19861689528489019650613b33565b60008881526020902060005b86811015613b2b5781548b820152908501908301613b12565b505084890196505b50505050505092915050565b6000613b4b8285613aa6565b8351613b5b8183602088016132a1565b01949350505050565b600061329a8284613aa6565b60006001600160801b0383811690831681811015613b9057613b906137d0565b039392505050565b60006001600160801b03808316818516808303821115613b5b57613b5b6137d0565b600081613bc957613bc96137d0565b506000190190565b6001600160a01b0385811682528416602082015260408101839052608060608201819052600090613c04908301846132cd565b9695505050505050565b600060208284031215613c2057600080fd5b815161329a81613267565b600082613c3a57613c3a613896565b500690565b634e487b7160e01b600052602160045260246000fdfea264697066735822122083d3234a54d82f2732e310b42105c7730251a06aa9d3b570f1bad136674a40f864736f6c634300080d0033",
  "immutableReferences": {
    "1396": [
      {
        "length": 32,
        "start": 9938
      },
      {
        "length": 32,
        "start": 9980
      },
      {
        "length": 32,
        "start": 11240
      }
    ]
  },
  "source": "// SPDX-License-Identifier: MIT\npragma solidity ^0.8.0;\nimport \"@openzeppelin/contracts/access/Ownable.sol\";\nimport \"@openzeppelin/contracts/utils/Strings.sol\";\nimport \"@openzeppelin/contracts/utils/cryptography/MerkleProof.sol\";\nimport \"@openzeppelin/contracts/utils/cryptography/ECDSA.sol\";\nimport \"./ERC721A.sol\";\n\ncontract Verb is ERC721A, Ownable {\n    uint256 public constant RESERVE_SUPPLY = 400;\n    uint256 public constant MAX_SUPPLY = 7500;\n    uint256 public constant DUTCH_SUPPLY = 5100;\n\n    uint256 public constant MINT_LIMIT = 5;\n    uint256 public constant DUTCH_MINT_LIMIT = 3;\n    uint256 public constant PRESALE_MINT_LIMIT = 1;\n\n    bool _revealed = false;\n\n    string private baseURI = \"\";\n\n    bytes32 presaleRoot;\n\n    uint256 public publicSaleStartTime;\n    uint256 public presaleStartTime;\n    mapping(address => uint256) addressBlockBought;\n\n    address public constant ADDRESS_1 =\n        0x7bAdC616Fb80D3937677F9c2a4bf837Dea2aF8EC; //Owner\n    address public constant ADDRESS_2 =\n        0x188A3c584F0dE9ee0eABe04316A94A41F0867C0C; //ZL\n\n    address signer;\n    mapping(bytes32 => bool) public usedDigests;\n\n    //DA CONFIGURATION\n    uint256 public dutchAuctionStartTime;\n    uint256 public dutchAuctionEndTime;\n    uint256 public refundEndTime;\n    uint256 constant STARTING_PRICE_DA = 0.3 ether;\n    uint256 constant ENDING_PRICE_DA = 0.1 ether;\n    uint256 constant PRICE_DECREMENT = 0.04 ether;\n    uint256 constant DECREMENT_INTERVAL = 30 minutes;\n    uint256 constant DUTCH_AUCTION_DURATION = 180 minutes;\n    uint256 constant MAX_STEP = 5;\n\n    uint256 public LAST_PRICE_DA = STARTING_PRICE_DA;\n\n    uint256 public dutchMints = 0;\n    struct UserPurchaseInfo {\n        uint256 dutchSpent;\n        uint256 dutchMinted;\n        uint256 presaleMinted;\n        bool claimed;\n    }\n\n    mapping(address => UserPurchaseInfo) public userPurchase;\n\n    constructor(\n        uint256 _dutchAuctionStartTime,\n        uint256 _presaleStartTime,\n        uint256 _publicSaleStartTime,\n        uint256 _refundEndTime\n    ) ERC721A(\"Verb\", \"VERB\", RESERVE_SUPPLY, MAX_SUPPLY) {\n        require(\n            _dutchAuctionStartTime + DUTCH_AUCTION_DURATION < _presaleStartTime,\n            \"DA_GREATER_THAN_PRESALE_TIME\"\n        );\n        require(\n            _presaleStartTime < _publicSaleStartTime,\n            \"PRESALE_GREATER_THAN_PUBLIC_SALE_TIME\"\n        );\n        dutchAuctionStartTime = _dutchAuctionStartTime;\n        dutchAuctionEndTime = _dutchAuctionStartTime + DUTCH_AUCTION_DURATION;\n     require(_refundEndTime > dutchAuctionEndTime, \"REFUND_GREATER_THAN_DA_END\");\n        presaleStartTime = _presaleStartTime;\n        publicSaleStartTime = _publicSaleStartTime;\n        refundEndTime = _refundEndTime;\n\n    }\n\n    modifier isSecured(uint8 mintType) {\n        require(\n            addressBlockBought[msg.sender] < block.timestamp,\n            \"CANNOT_MINT_ON_THE_SAME_BLOCK\"\n        );\n        require(tx.origin == msg.sender, \"CONTRACTS_NOT_ALLOWED_TO_MINT\");\n\n        if (mintType == 1) {\n            require(isPublicSaleActive(), \"PUBLIC_MINT_IS_NOT_YET_ACTIVE\");\n        }\n\n        if (mintType == 2) {\n            require(isPresaleActive(), \"PRESALE_MINT_IS_NOT_YET_ACTIVE\");\n        }\n        if (mintType == 3) {\n            require(isDutchAuctionActive(), \"DUTCH_AUCTION_IS_NOT_YET_ACTIVE\");\n        }\n\n        _;\n    }\n\n    //Essential\n    function mint(\n        uint256 numberOfTokens,\n        uint64 expireTime,\n        bytes memory sig\n    ) external payable isSecured(1) {\n        bytes32 digest = keccak256(\n            abi.encodePacked(msg.sender, expireTime, numberOfTokens)\n        );\n        require(isAuthorized(sig, digest), \"CONTRACT_MINT_NOT_ALLOWED\");\n        require(block.timestamp <= expireTime, \"EXPIRED_SIGNATURE\");\n        require(!usedDigests[digest], \"SIGNATURE_LOOPING_NOT_ALLOWED\");\n        require(\n            numberOfTokens + totalSupply() <= MAX_SUPPLY,\n            \"NOT_ENOUGH_SUPPLY\"\n        );\n        require(\n            numberMinted(msg.sender) + numberOfTokens <= MINT_LIMIT,\n            \"EXCEED_MINT_LIMIT\"\n        );\n        require(msg.value == LAST_PRICE_DA * numberOfTokens, \"INVALID_AMOUNT\");\n        addressBlockBought[msg.sender] = block.timestamp;\n        usedDigests[digest] = true;\n        _safeMint(msg.sender, numberOfTokens);\n    }\n\n    function presaleMint(bytes32[] memory proof) external payable isSecured(2) {\n        bytes32 leaf = keccak256(abi.encodePacked(msg.sender));\n        require(MerkleProof.verify(proof, presaleRoot, leaf), \"PROOF_INVALID\");\n        require(\n            numberMinted(msg.sender) + 1 <= MINT_LIMIT,\n            \"EXCEED_MINT_LIMIT\"\n        );\n        require(\n            userPurchase[msg.sender].presaleMinted + 1 <= PRESALE_MINT_LIMIT,\n            \"EXCEED_PRESALE_MINT_LIMIT\"\n        );\n        require(\n            1 + totalSupply() <= MAX_SUPPLY,\n            \"NOT_ENOUGH_SUPPLY\"\n        );\n        require(\n            msg.value == (LAST_PRICE_DA / 2),\n            \"INVALID_AMOUNT\"\n        );\n        addressBlockBought[msg.sender] = block.timestamp;\n        userPurchase[msg.sender].presaleMinted += 1;\n        _safeMint(msg.sender, 1);\n    }\n\n    function devMint(uint256 numberOfTokens) external onlyOwner {\n        require(\n            numberOfTokens + totalSupply() <= MAX_SUPPLY,\n            \"NOT_ENOUGH_SUPPLY\"\n        );\n        require(\n            numberOfTokens + numberMinted((msg.sender)) <= RESERVE_SUPPLY,\n            \"NOT_ENOUGH_RESERVE_SUPPLY\"\n        );\n        _safeMint(msg.sender, numberOfTokens);\n    }\n\n    //Essential\n    function setBaseURI(string calldata URI) external onlyOwner {\n        baseURI = URI;\n    }\n\n    function reveal(bool revealed, string calldata _baseURI) public onlyOwner {\n        _revealed = revealed;\n        baseURI = _baseURI;\n    }\n\n    //Essential\n\n    function withdraw() external onlyOwner {\n        require(\n            block.timestamp >= refundEndTime,\n            \"MUST_WAIT_FOR_REFUND_PERIOD_TO_END\"\n        );\n        uint256 balance = address(this).balance;\n        require(balance > 0, \"No balance to withdraw\");\n        payable(ADDRESS_2).transfer((balance * 700) / 10000);\n        payable(ADDRESS_1).transfer(address(this).balance);\n    }\n\n    function tokenURI(uint256 tokenId)\n        public\n        view\n        virtual\n        override\n        returns (string memory)\n    {\n        if (_revealed) {\n            return string(abi.encodePacked(baseURI, Strings.toString(tokenId)));\n        } else {\n            return string(abi.encodePacked(baseURI));\n        }\n    }\n\n    function tokensOfOwner(address owner)\n        public\n        view\n        returns (uint256[] memory)\n    {\n        uint256 tokenCount = balanceOf(owner);\n        uint256[] memory tokenIds = new uint256[](tokenCount);\n        for (uint256 i = 0; i < tokenCount; i++) {\n            tokenIds[i] = tokenOfOwnerByIndex(owner, i);\n        }\n        return tokenIds;\n    }\n\n    function numberMinted(address owner) public view returns (uint256) {\n        return _numberMinted(owner);\n    }\n\n    function setPreSaleRoot(bytes32 _presaleRoot) external onlyOwner {\n        presaleRoot = _presaleRoot;\n    }\n\n\n    function setSigner(address _signer) external onlyOwner {\n        signer = _signer;\n    }\n\n    function isAuthorized(bytes memory sig, bytes32 digest)\n        private\n        view\n        returns (bool)\n    {\n        return ECDSA.recover(digest, sig) == signer;\n    }\n\n    function setTimestamps(\n        uint256 _dutchAuctionStartTime,\n        uint256 _presaleStartTime,\n        uint256 _publicSaleStartTime,\n        uint256 _refundEndTime\n    ) external onlyOwner {\n        require(\n            _dutchAuctionStartTime + DUTCH_AUCTION_DURATION < _presaleStartTime,\n            \"DA_GREATER_THAN_PRESALE_TIME\"\n        );\n        require(\n            _presaleStartTime < _publicSaleStartTime,\n            \"PRESALE_GREATER_THAN_PUBLIC_SALE_TIME\"\n        );\n        dutchAuctionStartTime = _dutchAuctionStartTime;\n        dutchAuctionEndTime = _dutchAuctionStartTime + DUTCH_AUCTION_DURATION;\n        require(\n            _refundEndTime > dutchAuctionEndTime,\n            \"REFUND_GREATER_THAN_DA_END\"\n        );\n        presaleStartTime = _presaleStartTime;\n        publicSaleStartTime = _publicSaleStartTime;\n        refundEndTime = _refundEndTime;\n    }\n\n    function isPublicSaleActive() public view returns (bool) {\n        return block.timestamp >= publicSaleStartTime;\n    }\n\n    function isPresaleActive() public view returns (bool) {\n        return\n            block.timestamp >= presaleStartTime &&\n            block.timestamp < publicSaleStartTime;\n    }\n\n    //ALL DUTCH FUNCTIONS\n    function isDutchAuctionActive() public view returns (bool) {\n        return\n            block.timestamp >= dutchAuctionStartTime &&\n            block.timestamp < dutchAuctionEndTime;\n    }\n\n    function dutchMint(uint256 numberOfTokens) external payable isSecured(3) {\n        require(\n            numberOfTokens + totalSupply() <= MAX_SUPPLY,\n            \"NOT_ENOUGH_SUPPLY\"\n        );\n        require(\n            numberOfTokens + dutchMints <= DUTCH_SUPPLY,\n            \"NOT_ENOUGH_DUTCH_SUPPLY\"\n        );\n        require(\n            numberMinted(msg.sender) + numberOfTokens <= MINT_LIMIT,\n            \"EXCEED_MINT_LIMIT\"\n        );\n        require(\n            userPurchase[msg.sender].dutchMinted+ numberOfTokens <= DUTCH_MINT_LIMIT,\n            \"EXCEED_DUTCH_MINT_LIMIT\"\n        );\n        uint256 mintPrice = currentDAPrice();\n        require(msg.value >= mintPrice * numberOfTokens, \"INVALID_AMOUNT\");\n        addressBlockBought[msg.sender] = block.timestamp;\n        userPurchase[msg.sender].dutchSpent += msg.value;\n        userPurchase[msg.sender].dutchMinted += numberOfTokens;\n        LAST_PRICE_DA = mintPrice;\n        dutchMints += numberOfTokens;\n        _safeMint(msg.sender, numberOfTokens);\n    }\n\n    function currentDAPrice() public view returns (uint256) {\n        if(dutchAuctionStartTime > block.timestamp) {\n            return STARTING_PRICE_DA;\n        }\n        uint256 timeElapsed = block.timestamp - dutchAuctionStartTime;\n        uint256 step = timeElapsed / DECREMENT_INTERVAL;\n\n        if (step >= MAX_STEP) {\n            return ENDING_PRICE_DA;\n        }\n\n        return STARTING_PRICE_DA - (PRICE_DECREMENT * step);\n    }\n\n    function dutchRefund() external {\n        require(\n            !userPurchase[msg.sender].claimed,\n            \"ALREADY_CLAIMED_REFUND\"\n        );\n        require(\n            userPurchase[msg.sender].dutchMinted > 0,\n            \"NO_DUTCH_PURCHASE\"\n        );\n        require(\n            block.timestamp >= dutchAuctionEndTime,\n            \"DUTCH_AUCTION_NOT_ENDED\"\n        );\n        require(\n            block.timestamp >= presaleStartTime,\n            \"REFUND_PERIOD_NOT_STARTED\"\n        );\n        require(block.timestamp < refundEndTime, \"REFUND_PERIOD_FINISHED\");\n        uint256 refund = userPurchase[msg.sender].dutchSpent -\n            (LAST_PRICE_DA * userPurchase[msg.sender].dutchMinted);\n        require(refund > 0, \"NO_REFUNDABLE_AMOUNT\");\n        userPurchase[msg.sender].claimed = true;\n        payable(msg.sender).transfer(refund);\n    }\n\n    function refundAmount() external view returns (uint256) {\n        return\n            userPurchase[msg.sender].dutchSpent -\n            (LAST_PRICE_DA * userPurchase[msg.sender].dutchMinted);\n    }\n}\n",
  "sourcePath": "/Users/jeremiahjrvalero/Documents/nft-projects/verbs/verbs-contract/contracts/Verb.sol",
  "compiler": {
    "name": "solc",
    "version": "0.8.13+commit.abaa5c0e.Emscripten.clang"
  },
  "schemaVersion": "3.4.6",
  "updatedAt": "2022-05-15T09:36:23.571Z",
  "networkType": "ethereum",
  "devdoc": {
    "kind": "dev",
    "methods": {
      "approve(address,uint256)": {
        "details": "See {IERC721-approve}."
      },
      "balanceOf(address)": {
        "details": "See {IERC721-balanceOf}."
      },
      "getApproved(uint256)": {
        "details": "See {IERC721-getApproved}."
      },
      "isApprovedForAll(address,address)": {
        "details": "See {IERC721-isApprovedForAll}."
      },
      "name()": {
        "details": "See {IERC721Metadata-name}."
      },
      "owner()": {
        "details": "Returns the address of the current owner."
      },
      "ownerOf(uint256)": {
        "details": "See {IERC721-ownerOf}."
      },
      "renounceOwnership()": {
        "details": "Leaves the contract without owner. It will not be possible to call `onlyOwner` functions anymore. Can only be called by the current owner. NOTE: Renouncing ownership will leave the contract without an owner, thereby removing any functionality that is only available to the owner."
      },
      "safeTransferFrom(address,address,uint256)": {
        "details": "See {IERC721-safeTransferFrom}."
      },
      "safeTransferFrom(address,address,uint256,bytes)": {
        "details": "See {IERC721-safeTransferFrom}."
      },
      "setApprovalForAll(address,bool)": {
        "details": "See {IERC721-setApprovalForAll}."
      },
      "supportsInterface(bytes4)": {
        "details": "See {IERC165-supportsInterface}."
      },
      "symbol()": {
        "details": "See {IERC721Metadata-symbol}."
      },
      "tokenByIndex(uint256)": {
        "details": "See {IERC721Enumerable-tokenByIndex}."
      },
      "tokenOfOwnerByIndex(address,uint256)": {
        "details": "See {IERC721Enumerable-tokenOfOwnerByIndex}. This read function is O(collectionSize). If calling from a separate contract, be sure to test gas first. It may also degrade with extremely large collection sizes (e.g >> 10000), test for your use case."
      },
      "tokenURI(uint256)": {
        "details": "See {IERC721Metadata-tokenURI}."
      },
      "totalSupply()": {
        "details": "See {IERC721Enumerable-totalSupply}."
      },
      "transferFrom(address,address,uint256)": {
        "details": "See {IERC721-transferFrom}."
      },
      "transferOwnership(address)": {
        "details": "Transfers ownership of the contract to a new account (`newOwner`). Can only be called by the current owner."
      }
    },
    "version": 1
  },
  "userdoc": {
    "kind": "user",
    "methods": {},
    "version": 1
  }
}